:100000000C9423060C9482120C945B120C944B06F5
:100010000C944B060C944B060C944B060C944B061C
:100020000C944B060C944B060C944B060C94C81382
:100030000C944B060C944B060C944B060C944B06FC
:100040000C9411120C944B060C94DF110C94B91102
:100050000C944B060C944B060C944B060C944B06DC
:100060000C94A9120C944B0607634236B79BD8A791
:100070001A39685618AEBAAB558C1D3CB7CC5763CD
:10008000BD6DEDFD753EF6177231BF000000803F7B
:1000900008000000BE922449123EABAAAA2ABECD97
:1000A000CCCC4C3E00000080BEABAAAAAA3E000009
:1000B0000000BF000000803F000000000008417801
:1000C000D3BB4387D1133D190E3CC3BD4282AD2B38
:1000D0003E68EC8276BED98FE1A93E4C80EFFFBE30
:1000E00001C4FF7F3F000000000000407A10F35A77
:1000F00000A0724E18090010A5D4E80000E8764868
:10010000170000E40B54020000CA9A3B000000E113
:10011000F505000080969800000040420F000000A6
:10012000A08601000000102700000000E803000086
:1001300000006400000000000A0000000000010050
:10014000000000002C76D888DC674F0823DFC1DF71
:10015000AE59E1B1B796E5E3E453C63AE651997674
:1001600096E8E6C28426EB898C9B62ED407C6FFCAE
:10017000EFBC9C9F40F2BAA56FA5F490055A2AF7F0
:100180005C936B6CF9676DC11BFCE0E40D47FEF5F9
:1001900020E6B500D0ED902E030094357705008061
:1001A000841E080000204E0A000000C80C333333C0
:1001B000330F986E12831141EF8D2114893BE65560
:1001C00016CFFEE6DB18D1844B381BF77C1D901D43
:1001D000A4BBE424203284725E228100C9F124ECA5
:1001E000A1E53D2700000000240027002A000000B0
:1001F0000000230026002900000000080002010082
:1002000000030407000000000000000000000000E0
:1002100000000000000000000000000000000000DE
:1002200000000000000000000000000000000000CE
:1002300000000000000000000000000000000000BE
:100240000000000000808080808080E0380C040680
:10025000020303010103030206040C3820202020BE
:100260006040C080000000000000000000000000AE
:100270000000FC0603010000000000000000000078
:10028000000000000000000000000000000000006E
:100290000000000103FE000000000000000000005C
:1002A000000003060C181010101010101010101081
:1002B000101010101010101010101010101010103E
:1002C0001018080C070100000000000000000000EA
:1002D00000000000000000060F09090F00E02020C8
:1002E000E0000F09090F00E02020E0000F09090FCE
:1002F00006000000000000000000000000000000F8
:1003000000000000000000000000000000010301E8
:1003100001000000000000010103010000000000D6
:1003200000000000000000000000000000000000CD
:1003300000000000000000000000000000000000BD
:1003400000000000000000000000000000000000AD
:10035000000000000000000000000000000000009D
:1003600000000080808080C06030180C0404040409
:10037000040C1830E0E060602020206060C0800045
:10038000000000000000000000000000000000006D
:1003900038FE830100000000000000C0F0180C04CB
:1003A0000404060301000000000000000000010337
:1003B00002020202060CF8E000000000000000004B
:1003C000000001030202020202020203070C1810DD
:1003D000103030303030303030303030303030303D
:1003E00030101010180C0701000000000000000081
:1003F000000000000000000080F80F00000000C0B6
:10040000FC0F00000000C07C0700000000E07E0739
:1004100000000000000000000000000000000000DC
:1004200000000000000000000100000000000001CA
:1004300000000000000001000000000000010000BA
:1004400000000000000000000000000000000000AC
:10045000000000000000000000000000000000009C
:10046000000000000000000000000000000000008C
:10047000000000000000000000000000000000007C
:1004800000000080E030180C0406020283C36323DE
:100490003212161C1C181010302060C080000000A2
:1004A0000000000000000000000000000080C060AC
:1004B0002030101F0000000080F0FE03010000004B
:1004C00000000000000000000080C04061273C30B8
:1004D000206040C080000000000000007CEF0100B0
:1004E000000000F01C0603010101000000000000F4
:1004F00000000000000000000001000000000000FB
:100500000000000001073C2060C0800000010306DD
:100510000C0C080F1C30206040C0C0C0C0C0C0C060
:10052000C0C0C0C0C0C0C0C0C0C0C0C0C0C0C0C0CB
:10053000C0C0C0C0C0C0C04040603B0F0000000051
:1005400000000000000000000000000000000000AB
:10055000000000000000000000000000000000009B
:10056000000000000000000000000000000000008B
:10057000000000000000000000000000000000007B
:10058000000080800000000000000000000000006B
:10059000000000000000000000000000000000005B
:1005A000000000000000000000103060C08000006B
:1005B0000000000F08000000000000381C070000C9
:1005C000000000000000000000000000000000002B
:1005D0000000000000404040404040008080E0F8C3
:1005E000CCC6C28381810101030306061C70E000B2
:1005F00004060203030100000000000000000000E8
:1006000000000080E0203010181C0E0301000000E4
:10061000000000000101030E1818103070FC870064
:1006200000060604040C00000000000000000000AA
:100630000000000F38606040C0C040606060404013
:10064000C0C0404060606040C0C04060303D0F00AE
:10065000000000000000000000000000000000009A
:10066000000000000000000000000000000000008A
:10067000000000000000000000000000000000007A
:10068000000000000000000000000000000000006A
:10069000000000000000000000000000000000005A
:1006A000000000C0C00000000000000000000000CA
:1006B000000000000000000000000000000000003A
:1006C00000000000000000183870E0C0800000004A
:1006D0000080809F9F80800000000080C0E0703814
:1006E00018000000000000000000000000000000F2
:1006F0000000808080808080800000E1F80C06038C
:10070000010101010101010103060CF8E100008073
:1007100080808080808000000000000000000000D9
:100720000000010101010101010000871F3060C0CC
:100730008080808080808080C060301F87000001C2
:1007400001010101010100000000000000000000A3
:1007500000000000000000181C0E0703010000004C
:10076000000101F9F90101000000000103070E1C5E
:100770001800000000000000000000000000000061
:100780000000000000000000000000000000000069
:100790000000000303000000000000000000000053
:1007A0000000000000000000000000000E182D0DE9
:1007B0000000000000000000000000000000000039
:1007C0001038383838383838381000000000000049
:1007D0000000000000000000000000000000000019
:1007E0000000000000000000000000000000000009
:1007F000000000000000000000000040E0E04000B9
:1008000000000000000002060E0E0E0E0E0E060284
:1008100000000000103838383838383838100000F8
:10082000000080C0E0E0E0E0E0E0C080000000FC0C
:10083000FAF60E0E0E0E0E0EF6FAFC0000EFC7834F
:1008400000000000000083C7EF00007FBFDFE0E092
:10085000E0E0E0E0DFBF7F000000000000000000FB
:100860000000F0F8FC0000000000000000000000A4
:1008700083C7EF00000000000000000000001F3FE1
:100880007F00000002060E0E0E0E0E0EF6FAFC00A1
:1008900000E0D0B83838383838383B170F00007FC0
:1008A000BFDFE0E0E0E0E0E0C08000000000020622
:1008B0000E0E0E0E0E0EF6FAFC0000001038383840
:1008C00038383838BBD7EF00000080C0E0E0E0E007
:1008D000E0E0DFBF7F0000FCF8F000000000000057
:1008E000F0F8FC00000F173B383838383838BBD7E1
:1008F000EF00000000000000000000001F3F7F002C
:1009000000FCFAF60E0E0E0E0E0E06020000000F90
:10091000173B383838383838B8D0E000000080C08D
:10092000E0E0E0E0E0E0DFBF7F0000FCFAF60E0E62
:100930000E0E0E0E0602000000EFD7BB3838383816
:100940003838B8D0E000007FBFDFE0E0E0E0E0E072
:10095000DFBF7F00000002060E0E0E0E0E0EF6FA2E
:10096000FC000000000000000000000083C7EF0052
:10097000000000000000000000001F3F7F0000FC9E
:10098000FAF60E0E0E0E0E0EF6FAFC0000EFD7BBB6
:10099000383838383838BBD7EF00007FBFDFE0E0A9
:1009A000E0E0E0E0DFBF7F0000FCFAF60E0E0E0E86
:1009B0000E0EF6FAFC00000F173B3838383838387E
:1009C000BBD7EF00000080C0E0E0E0E0E0E0DFBF88
:1009D0007F000608205F0000000000000000002FDC
:1009E000000000000700070000147F147F1400249B
:1009F0002A7F2A12002313086462003649552250C8
:100A000000000503000000001C22410000004122FC
:100A10001C000014083E08140008083E08080000E6
:100A200000A06000000808080808000060600000DE
:100A3000002010080402003E5149453E0000427F5C
:100A40004000004261514946002141454B310018A8
:100A500014127F10002745454539003C4A4949306A
:100A60000001710905030036494949360006494924
:100A7000291E00003636000000005636000000082F
:100A8000142241000014141414140000412214080C
:100A900000020151090600324959513E007C1211F1
:100AA000127C007F49494936003E41414122007F86
:100AB0004141221C007F49494941007F0909090140
:100AC000003E4149497A007F0808087F0000417FC5
:100AD0004100002040413F01007F08142241007F77
:100AE00040404040007F020C027F007F0408107FDE
:100AF000003E4141413E007F09090906003E415147
:100B0000215E007F09192946004649494931000103
:100B1000017F0101003F4040403F001F2040201F57
:100B2000003F4038403F006314081463000708701A
:100B3000080700615149454300007F414100AA5523
:100B4000AA55AA55000041417F0000040201020499
:100B50000040404040400000030500000020545485
:100B60005478007F484444380038444444200038D6
:100B70004444487F00385454541800087E09010248
:100B80000018A4A4A47C007F080404780000447D1D
:100B90004000004080847D00007F10284400000059
:100BA000417F4000007C04180478007C080404782D
:100BB00000384444443800FC242424180018242419
:100BC00018FC007C08040408004854545420000415
:100BD0003F444020003C4040207C001C2040201C22
:100BE000003C4030403C004428102844001CA0A099
:100BF000A07C004464544C440000107C820000003F
:100C000000FF00000000827C1000000006090906B9
:100C10000102040810204080010204081020010293
:100C20000408102000000000250028002B00040408
:100C30000404040404040202020202020303030384
:100C400003030D14D61B11241FBECFEFD8E0DEBF67
:100C5000CDBF24E0AAEDB2E001C01D92AD3BB207CA
:100C6000E1F712E0A0E0B1E0E0EAF9E402C00590AB
:100C70000D92AA3DB107D9F716E0C2E2D6E004C052
:100C80002197FE010E94BC22C132D107C9F70E9400
:100C9000E4140C94C3240C9400009091AC04E091F3
:100CA000A604F091A7042081909592239083E0916F
:100CB000A204F091A3049091AA042081611130C094
:100CC00090959223908328E0E091A004F091A104F4
:100CD0009091A904308187FF25C0932B9083880FC2
:100CE0009091A804E0919E04F0919F04308190952A
:100CF0009323908300009091A804E0919E04F091CA
:100D00009F043081932B90832150F1F68091AC04A5
:100D1000E091A604F091A7049081892B8083089527
:100D2000922BD0CF90959323D9CFCF93DF938091FF
:100D3000B604811110C060E080E40E944D0660E0BE
:100D400080E80E944D06C8EFD1E061E080E00E949B
:100D50004D062197D1F7DF91CF910895AEE9B4E028
:100D600052969C938E935197FC01249153962C9309
:100D700053973196E4915496EC935497FC01329634
:100D8000E4915596EC9355970396FC018491569601
:100D90008C93569757961C9208952091B90381E041
:100DA000213208F044C0809195038111FCCF8091DD
:100DB000B80392E09093950391E0909394039FEF92
:100DC000909393031092920320939103A8E9B3E0C8
:100DD000E1E7F3E090E0291331C0109270039091A5
:100DE0007003880F892B8093700380916F0381308B
:100DF00049F510926F03809170038093BB0080913E
:100E0000BC0083FDF8CF85EC8093BC0080919503F6
:100E10008230E1F3809193038F3FB1F0809193038F
:100E20008032A1F080919303803391F084E010929E
:100E300097031092B9031092960308953D91319350
:100E40009F5FC9CF85EEE0CF80E0F1CF82E0EFCFAA
:100E500083E0EDCFEF92FF921F93CF93DF9320912A
:100E6000B60421112CC0EC0111E060E0812F8064F8
:100E70000E944D0660E084E90E944D06F12CE12CB1
:100E8000F701EC0FFD1F849161E00E944D068FEF8A
:100E9000E81AF80A80E3E816F10491F71F5FE0967C
:100EA000173019F760E080E40E944D0660E080E8AA
:100EB000DF91CF911F91FF90EF900C944D06DF9141
:100EC000CF911F91FF90EF900895CF93DF9360E053
:100ED00081E20E944D06CEE9D4E0898D60E0806811
:100EE0000E944D0660E086E00E944D0660E083E1CE
:100EF0000E944D0660E080E20E944D0660E08CE0BA
:100F00000E944D06188EDF91CF910895089508959F
:100F1000AF92BF92CF92DF92EF92FF920F931F9307
:100F2000CF93DF936C017B018B01040F151FEB0145
:100F30005E01AE18BF08C017D10759F06991D601FC
:100F4000ED91FC910190F081E02DC6010995892B6E
:100F500079F7C501DF91CF911F910F91FF90EF902D
:100F6000DF90CF90BF90AF900895FC01538D448DDA
:100F7000252F30E0842F90E0821B930B541710F044
:100F8000CF96089501970895FC01918D828D981751
:100F900061F0A28DAE0FBF2FB11D5D968C91928D29
:100FA0009F5F9F73928F90E008958FEF9FEF08955A
:100FB000FC01918D828D981731F0828DE80FF11D23
:100FC000858D90E008958FEF9FEF0895FC01918D3E
:100FD000228D892F90E0805C9F4F821B91098F7337
:100FE000992708958AEB93E00E94E60721E0892B78
:100FF00009F420E0822F089580E090E0892B29F009
:101000000E94F20781110C9400000895FC01A48D48
:10101000A80FB92FB11DA35ABF4F2C91848D90E01A
:1010200001968F739927848FA689B7892C93A089FD
:10103000B1898C91837080648C93938D848D981387
:1010400006C00288F389E02D80818F7D808308951A
:10105000EF92FF920F931F93CF93DF93EC0181E008
:10106000888F9B8D8C8D98131AC0E889F9898081AF
:1010700085FF15C09FB7F894EE89FF896083E889E2
:10108000F98980818370806480839FBF81E090E0D4
:10109000DF91CF911F910F91FF90EF900895F62E61
:1010A0000B8D10E00F5F1F4F0F731127E02E8C8DFB
:1010B0008E110CC00FB607FCFACFE889F989808140
:1010C00085FFF5CFCE010E940608F1CFEB8DEC0F26
:1010D000FD2FF11DE35AFF4FF0829FB7F8940B8F5D
:1010E000EA89FB8980818062CFCFCF93DF93EC01C7
:1010F000888D8823B9F0AA89BB89E889F9898C9100
:1011000085FD03C0808186FD0DC00FB607FCF7CFBB
:101110008C9185FFF2CF808185FFEDCFCE010E94BB
:101120000608E9CFDF91CF910895833081F028F44C
:10113000813099F08230A9F008958730A9F0883085
:10114000C9F08430B1F4809180008F7D03C080911C
:1011500080008F7780938000089584B58F7784BD59
:10116000089584B58F7DFBCF8091B0008F778093F9
:10117000B00008958091B0008F7DF9CFCF93DF93B9
:10118000282F30E0F901E850FE4F8491F901E05F2B
:10119000F34FD491F901E25DF34FC491CC23A1F058
:1011A00081110E949508EC2FF0E0EE0FFF1FE25135
:1011B000FE4FA591B491EC91ED2381E090E009F40C
:1011C00080E0DF91CF91089580E090E0FACF1F9307
:1011D000CF93DF93282F30E0F901E850FE4F849140
:1011E000F901E05FF34FD491F901E25DF34FC4914F
:1011F000CC23A9F0162F81110E949508EC2FF0E066
:10120000EE0FFF1FEC5DF34FA591B4918FB7F894EB
:10121000EC91111108C0D095DE23DC938FBFDF91D4
:10122000CF911F910895DE2BF8CFCF93DF9390E0FD
:10123000FC01E05FF34F2491825D934FFC018491A8
:101240008823D1F090E0880F991FFC01EC51FE4FEC
:10125000A591B491FC01EC5DF34FC591D49161115E
:101260000EC09FB7F8948C91E22FE0958E238C935B
:101270002881E223E8839FBFDF91CF9108958FB744
:10128000F894EC91E22BEC938FBFF6CF3FB7F89434
:101290008091260390912703A0912803B091290300
:1012A00026B5A89B05C02F3F19F00196A11DB11DC1
:1012B0003FBFBA2FA92F982F8827BC01CD01620FFD
:1012C000711D811D911D42E0660F771F881F991FB8
:1012D0004A95D1F708958F929F92AF92BF92CF9285
:1012E000DF92EF92FF924B015C010E9446096B0175
:1012F0007C010E9446096C197D098E099F09683E90
:10130000734081059105A8F321E0821A9108A10894
:10131000B10888EEC80E83E0D81EE11CF11C8114D0
:101320009104A104B10429F7FF90EF90DF90CF90D2
:10133000BF90AF909F908F900895089585ED809312
:10134000BC008091BC0084FDFCCF109295030895F1
:101350002091FD02260F3327331F21323105ECF493
:1013600020919503FC0190E080E0243069F082E058
:101370000895A091FD022191AC0143525D4FA40F4D
:10138000B52FB11D2C930196861798F38091FD021D
:10139000680F6093FD0280E0089581E0089508954C
:1013A000E0914E0380914D03E81730F4F0E0E15BEB
:1013B000FC4F808190E008958FEF9FEF089590910A
:1013C0004E0380914D032FEF3FEF981748F4E92F1C
:1013D000F0E0E15BFC4F208130E09F5F90934E0393
:1013E000C901089580914D0390914E03891B990B7B
:1013F0000895CF92DF92EF92FF920F931F93CF93B6
:10140000DF937C01CB018A0120919603222389F08E
:10141000EB016B01C40ED51ECC15DD0569F0699199
:10142000D701ED91FC910190F081E02DC701099564
:10143000F3CF642F0E94A809C801DF91CF911F91BB
:101440000F91FF90EF90DF90CF900895CF93DF93AF
:101450001F92CDB7DEB76983209196032223F9F05E
:101460002091B903203258F021E030E0FC013383B1
:10147000228390E080E00F90DF91CF9108958091DA
:101480009703E82FF0E0E856FC4F998190838F5F37
:10149000809397038093B90381E090E0ECCF61E003
:1014A000CE0101960E94A809F7CFCF93C82F81E003
:1014B0008093960387E78093B80310929703109266
:1014C000B90364EF87E594E00E94260A6C2F87E554
:1014D00094E00E94260ACF910C94CD0690E080E023
:1014E0000895909195039111FCCF282F91E090934E
:1014F0009503909394033FEF3093930310929203DC
:10150000380F3093910390937003909170039E6E07
:101510009093700390916F03913019F510926F03BF
:10152000909170039093BB009091BC0093FDF8CF15
:1015300095EC9093BC00909195039130E1F39091DC
:101540009203981710F420919203A1E7B3E0EFE41F
:10155000F3E080E0821307C010924E0380934D03A6
:10156000089595EEE6CF9D9191938F5FF3CFCF9342
:10157000C1E0C093960397E79093B8031092970346
:101580001092B903682F87E594E00E94260A0E9412
:10159000CD06C0939603109297031092B90381E091
:1015A00090E00E94710A87E594E00E94DF09C82F4D
:1015B0000E94CD068C2FCF910895CF93DF93C1E089
:1015C000C093960397E79093B803109297031092F5
:1015D000B903682F87E594E00E94260A0E94CD0691
:1015E000C0939603109297031092B90382E090E0A3
:1015F0000E94710A87E594E00E94DF09D82F80E0FD
:10160000C82F87E594E00E94DF09C82BD92B0E94E0
:10161000CD06CE01DF91CF9108954F925F926F92E8
:101620007F928F929F92AF92BF92CF92DF92EF9272
:10163000FF92CF93DF9300D000D01F92CDB7DEB7DB
:101640008EE20E94550A65E070E080E090E00E9422
:101650006B0986EF0E94DD0A4C01B12CA12C809110
:1016600087048295880F880F807C8C5C0E94550AC5
:1016700080918704811174C165E070E080E090E0A2
:101680000E946B0986EF0E94DD0AB0E0A0E0CC2446
:10169000D82EE92EFA2E88EF0E94B70AA7019601EC
:1016A000282B29833A834B835C83309187043D83C5
:1016B00080919C0490919D04A5019401281B390BF5
:1016C00041095109A0919A04B0919B040E94751F91
:1016D0004B015C01AFE0B594A79497948794AA95C9
:1016E000D1F76091940470919504072E000C880B3B
:1016F000990BBBE0660F771F881F991FBA95D1F72A
:101700002091960430919704032E000C440B550B46
:10171000280D391D4A1D5B1D0E949522820E931EC5
:10172000A41EB51E7501640140EAC41A4FE0D40A34
:10173000E108F108A7019601C701B6010E946322E2
:101740004B015C018CE0B594A794979487948A959B
:10175000D1F7A0918C04B0918D040E94B4222B018A
:101760003C019DE075946794579447949A95D1F7FE
:10177000A0918E04B0918F04A50194010E94B4221F
:101780009C01552737FD5095452F240D351D461DCD
:10179000571D2E5F3F4F4F4F5F4F62E05595479566
:1017A000379527956A95D1F730584F4F5F4FA091E5
:1017B0009804B09199040E94751F2B013C017FE0B1
:1017C00076946794579447947A95D1F788E090E09F
:1017D0005D81851B910929813A814B815C8104C01F
:1017E00056954795379527958A95D2F729833A8359
:1017F0004B835C83A0919004B0919104A501940166
:101800000E94B4224B015C01EBE0B594A79497943D
:101810008794EA95D1F7A0918A04B0918B04A7012F
:1018200096010E94B422FBE0959587957795679580
:10183000FA95D1F7680D791D8A1D9B1D809088044B
:1018400090908904092C000CAA08BB08A2E0880C1F
:10185000991CAA1CBB1CAA95D1F7680D791D8A1D7D
:101860009B1D0D8004C0660F771F881F991F0A9467
:10187000D2F76E5F7F4F8F4F9F4F24E030E040E004
:1018800050E00E94952289819A81AB81BC81821BA4
:10189000930BA40BB50B9C01AD0160E573EC80E0EC
:1018A00090E00D8004C096958795779567950A948A
:1018B000D2F70E94632297FD66C0660F771F881FCC
:1018C000991FA30192010E94732269017A0199274D
:1018D000F7FC9A958F2D7E2D6D2D9B01AC010E94FA
:1018E00063229B01AC01AEEDBBE00E94751F4B0172
:1018F0005C01A3E4B3EEA70196010E94B722BC01EC
:10190000992777FD9095892F4501BB2497FCB094CA
:10191000AB2C680D791D8A1D9B1D6153714F8F4F34
:101920009F4F44E095958795779567954A95D1F7B0
:101930006C0D7D1D8E1D9F1D0F900F900F900F90B1
:101940000F90DF91CF91FF90EF90DF90CF90BF90FD
:10195000AF909F908F907F906F905F904F90089581
:10196000813029F468E070E080E090E089CE823038
:1019700029F46EE070E080E090E082CE6AE170E0F1
:1019800080E090E07DCEA30192010E947322690164
:101990007A01CC0CDD1CEE1CFF1C99CF2F923F92DC
:1019A0004F925F926F927F928F929F92AF92BF926F
:1019B000CF92DF92EF92FF920F931F93CF93DF931B
:1019C00000D01F92CDB7DEB74C017B836A83809134
:1019D000B6048111C7C0F40101900020E9F73197E6
:1019E0008F01081919096E307742E9F42091B1048A
:1019F000209FC001219F900D112424E530E0281B79
:101A0000390B3B832A8337FF04C02F5F3F4F3B8353
:101A10002A838A819B81959587959B838A8397FFEB
:101A200002C01B821A823A0183E0759467948A95FA
:101A3000E1F7F12CE12CE016F1060CF093C0809157
:101A4000B60481118BC08091B10490E0E89E9001B2
:101A5000E99E300DF89E300D11244A815B81240FE0
:101A6000351F820F931F853591050CF077C080914B
:101A7000B204869586958695860D972D911D0797BC
:101A80000CF06CC0F401EE0DFF1D2080D12CC12C98
:101A9000522F50685983312C8091B20486958695D7
:101AA000869560E08C151D0409F00CF450C08C2D57
:101AB000860D80640E944D0660E089810E944D067B
:101AC0008091B2048695869586959091B104899F00
:101AD000C00111242091B304A101421B5109849F2C
:101AE0002001859F500C949F500C1124B12CA12CE7
:101AF00054E0450E511C2091B10430E0A216B3060B
:101B000014F5C29EC001C39E900DD29E900D11246B
:101B1000F201EA0DFB1D8E0F9F1FE091AF04F091C3
:101B2000B004E80FF91F8091B504811108C08491B9
:101B300061E00E944D068FEFA81AB80ADCCF8491AD
:101B400061E08095F6CF9FEFC91AD90AA5CF80E44E
:101B50000E944D0660E080E80E944D062FEFE21AD9
:101B6000F20A69CF0F900F900F90DF91CF911F91E4
:101B70000F91FF90EF90DF90CF90BF90AF909F902C
:101B80008F907F906F905F904F903F902F9008952F
:101B9000FC0101900020E9F73197AF01481B590B78
:101BA000BC018AEB93E00C9488078F929F92AF92CE
:101BB000BF920F931F93CF93DF93CDB7DEB7A1975B
:101BC0000FB6F894DEBF0FBECDBF19A2423008F4A5
:101BD0004AE08E010F5D1F4F842E912CB12CA12C59
:101BE000A50194010E947322E62FB901CA01EA30CF
:101BF000F4F4E05DD801EE938D01232B242B252BEB
:101C000079F790E080E0109719F0CD010E94C80D9F
:101C1000A1960FB6F894DEBF0FBECDBFDF91CF9176
:101C20001F910F91BF90AF909F908F900895E95CA6
:101C3000E1CF4F925F926F927F928F929F92AF927D
:101C4000BF92CF92DF92EF92FF920F931F93CF93A9
:101C50006B017C01742EAC019B010E942921882319
:101C600099F08AE391E0CF911F910F91FF90EF904F
:101C7000DF90CF90BF90AF909F908F907F906F90AC
:101C80005F904F900C94C80D46015701E894B7F847
:101C90002FEF3FEF4FE75FE7C501B4010E94292115
:101CA00081110DC02FEF3FEF4FE75FE7C501B40192
:101CB0000E943B1E18161CF48EE391E0D4CF2FEF48
:101CC0003FEF4FE75FE4C701B6010E94D42018162A
:101CD0001CF482E491E0C7CF2FEF3FEF4FE75FECBA
:101CE000C701B6010E943B1E87FDF3CF20E030E024
:101CF000A901C701B6010E943B1E10E000E087FF6A
:101D00000AC06DE28AEB93E00E9428088C01F7FA82
:101D1000F094F7F8F094C0E060E070E080E09FE3BA
:101D20007C1641F020E030E040E251E40E94332094
:101D3000CF5FF6CFA70196010E94C71F2B013C0180
:101D40000E94A5204B015C014AE00E94D50D7C0158
:101D5000E00EF11ECC23C1F1C501B4010E94401E6A
:101D60009B01AC01C301B2010E94C61F4B015C0183
:101D70006EE28AEB93E00E942808E80EF91EC1503B
:101D800018F120E030E040E251E4C501B4010E94C6
:101D9000A11E2B013C010E94A5204B01B12CA12CBE
:101DA0004AE0C501B4010E94D50DE80EF91EC50137
:101DB000B4010E94401E9B01AC01C301B2010E940C
:101DC000C61F4B015C01DBCFC701CF911F910F9163
:101DD000FF90EF90DF90CF90BF90AF909F908F904B
:101DE0007F906F905F904F900895CF93DF930E9404
:101DF000C80DEC0186E491E00E94C80D8C0F9D1F78
:101E0000DF91CF9108950F931F93CF93DF93CDB7B9
:101E1000DEB76B970FB6F894DEBF0FBECDBF209133
:101E2000B60421110EC08E010F5F1F4F21E040E06C
:101E30000E94E61B42E150E06EE077E2C8010E949A
:101E4000CE0C6B960FB6F894DEBF0FBECDBFDF9100
:101E5000CF911F910F9108950F931F93CF93DF930D
:101E6000C9E4D3E08C0109541340C8018C0F9D1FB5
:101E70000E945F1F899383E0CD34D807B1F789E4CE
:101E800093E0DF91CF911F910F910895AF92BF9290
:101E9000CF92DF92EF92FF920F931F93CF93DF9336
:101EA000CDB7DEB75B01CDB6DEB6FC01048115818E
:101EB00098012F5F3F4F4DB75EB7421B530B0FB6D4
:101EC000F8945EBF0FBE4DBFEDB7FEB731967F01F0
:101ED0004091B60441110CC0232B21F001151105CE
:101EE000B9F41082A5016EE077E2C7010E94CE0C22
:101EF0000FB6F894DEBE0FBECDBEDF91CF911F911D
:101F00000F91FF90EF90DF90CF90BF90AF9008952A
:101F1000FC0160817181A801C7010E94B424F7010E
:101F2000E00FF11FDECF0F931F93CF93DF93EC01F0
:101F300088819981009759F02A813B8126173707BC
:101F400030F081E0DF91CF911F910F9108958B01C7
:101F50006F5F7F4F0E94E723009759F09983888332
:101F60001B830A832C813D81232B59F7FC011082AE
:101F7000E8CF80E0E7CFCF93DF93EC0188819981B0
:101F8000009711F00E945E23198218821D821C8224
:101F90001B821A82DF91CF910895EF92FF920F93E7
:101FA0001F93CF93DF93EC018617970781F0FB0116
:101FB000008111810115110539F0E480F580B70128
:101FC0000E94930F81110BC0CE010E94BB0FCE0166
:101FD000DF91CF911F910F91FF90EF900895FD82B7
:101FE000EC82B801888199810E94AD24F0CFEF92F4
:101FF000FF920F931F93CF93DF93EC017B01198224
:1020000018821B821A821D821C82FB010190002013
:10201000E9F731978F01061B170BB8010E94930F48
:10202000811109C0CE01DF91CF911F910F91FF90D7
:10203000EF900C94BB0F1D830C83B70188819981AD
:10204000DF91CF911F910F91FF90EF900C94AD24F1
:10205000CF92DF92EF92FF920F931F93CF93DF9374
:10206000CDB7DEB7C456D1090FB6F894DEBF0FBEA8
:10207000CDBF7C018B01DB01CD90DC90C6010E94BD
:102080005F1F882319F1F8018285938584369105B5
:10209000ECF4828593858C0D9D1D0E945F1FD801F5
:1020A0001A96ED91FC911B9721E030E02C0F3D1F1B
:1020B000E20FF31F80831A962D913C911B972F5F9F
:1020C0003F4F1B963C932E931A97DBCFD8011A965D
:1020D000ED91FC9121E030E02C0F3D1FE20FF31F4A
:1020E0001082B901C7010E94F70FC701CC59DF4F19
:1020F0000FB6F894DEBF0FBECDBFDF91CF911F9119
:102100000F91FF90EF90DF90CF900895FC018081B8
:102110009181009711F00C945E2308950F931F9303
:10212000CF93DF93EC018C010E5F1F4FC8010E941B
:10213000CD0FB801CE010C960E94CD0F88899989E8
:102140009B878A8719861886288539858A859B8585
:10215000281739070CF588859985288939898217C8
:10216000930720F4EC85FD85309799F410922003B5
:10217000E0E2F3E028853985888199816081820FCA
:10218000931F0E94671F8885998501969987888784
:10219000DBCFE80FF91FEECF2A853B858881998137
:1021A00060E0820F931FDF91CF911F910F910C94EC
:1021B000671F9F92AF92BF92CF92DF92EF92FF92F2
:1021C0000F931F93CF93DF935C017B018B01D0E0D2
:1021D000C0E0F80191908F016501CC0EDD1EC601B3
:1021E0000E945F1F981621F0692DC6010E94671F8B
:1021F0002196C430D10569F7C701DF91CF911F91B6
:102200000F91FF90EF90DF90CF90BF90AF909F9095
:1022100008950F931F93CF93DF9300D000D000D089
:10222000CDB7DEB783E00E94BE0821E0892B09F418
:1022300020E02093DC028091DC02882309F485C031
:102240008091480381118CC069E471E0CE01019650
:102250000E94F70FBE016F5F7F4F85E794E00E94F9
:102260008E10CE0101960E94861065E571E0CE01C8
:1022700001960E94F70FBE016F5F7F4F83E694E0E7
:102280000E948E10CE0101960E94861080910A0154
:1022900090910B016AE373E00E94D91080910801CC
:1022A0009091090166E373E00E94D91080910601C4
:1022B0009091070162E373E00E94D91060912E03B0
:1022C00070912F03809130039091310320E030E032
:1022D00048EC52E40E94332069837A838B839C8389
:1022E0008091040190910501BE016F5F7F4F0E94B4
:1022F000D91081E0809348038093B60460E080E4C5
:102300000E944D0660E080E80E944D0608EF11E053
:1023100061E080E00E944D0601501109C9F760E0BC
:1023200084E20E944D0660E087E00E94E70860E0DA
:102330008DE00E94E70860E086E00E94E7088BE1FC
:1023400093E00197F1F71092DC0226960FB6F8940D
:10235000DEBF0FBECDBFDF91CF911F910F910895CA
:1023600080914803882379F3109248030E946507FF
:10237000E6CF1F920F920FB60F9211242F933F9327
:102380004F935F936F937F938F939F93AF93BF937D
:10239000EF93FF938AEB93E00E940608FF91EF9181
:1023A000BF91AF919F918F917F916F915F914F916D
:1023B0003F912F910F900FBE0F901F9018951F9275
:1023C0000F920FB60F9211242F938F939F93EF9339
:1023D000FF93E091CA03F091CB038081E091D00399
:1023E000F091D10382FD1BC090818091D3038F5F58
:1023F0008F732091D403821741F0E091D303F0E072
:10240000E654FC4F958F8093D303FF91EF919F91FA
:102410008F912F910F900FBE0F901F901895808174
:10242000F4CF1F920F920FB60F9211242F933F9368
:102430008F939F93AF93BF93809122039091230337
:10244000A0912403B09125033091210323E0230FB1
:102450002D3758F50196A11DB11D209321038093BE
:10246000220390932303A0932403B0932503809128
:10247000260390912703A0912803B0912903019688
:10248000A11DB11D8093260390932703A0932803D9
:10249000B0932903BF91AF919F918F913F912F915D
:1024A0000F900FBE0F901F90189526E8230F0296ED
:1024B000A11DB11DD2CF1F920F920FB60F92112402
:1024C0002F933F934F935F936F937F938F939F933C
:1024D000AF93BF93EF93FF93E0910201F09103015B
:1024E0000995FF91EF91BF91AF919F918F917F914E
:1024F0006F915F914F913F912F910F900FBE0F9071
:102500001F9018951F920F920FB60F9211242F93C0
:102510003F934F935F936F937F938F939F93AF936B
:10252000BF93EF93FF93E0910001F09101010995B2
:10253000FF91EF91BF91AF919F918F917F916F919B
:102540005F914F913F912F910F900FBE0F901F9071
:1025500018951F920F920FB60F9211242F933F934D
:102560004F935F936F937F938F939F93AF93BF939B
:10257000EF93FF938091B900887F803609F44AC0B9
:10258000F0F5883209F4A7C018F5803109F49BC032
:10259000B8F4882309F4F9C0883009F494C0FF9195
:1025A000EF91BF91AF919F918F917F916F915F91CB
:1025B0004F913F912F910F900FBE0F901F90189544
:1025C000883109F488C0803251F78093930314C096
:1025D000803409F49DC040F48033B9F38833F9F6B0
:1025E0008093930385ECB0C0803509F485C08835AD
:1025F00009F496C0883499F60E949E09D0CF883994
:1026000009F48CC038F5883729F050F4883611F079
:10261000803729F683E08093950310921F0357C0FB
:10262000883809F47BC0803919F0803809F0B7CFB9
:1026300080911F03803208F071C0E0911F0381E098
:102640008E0F80931F038091BB00F0E0E150FD4F9F
:1026500080833DC0803B39F0E0F4803A09F479C0D2
:10266000883A09F09CCF84E0809395031092FE0293
:102670001092FD02E0912C03F0912D0309958091B9
:10268000FD0281110FC081E08093FD021092DD02F6
:1026900009C0803C09F4A6CF883C09F4A3CF883B4D
:1026A00009F07DCFE091FE0281E08E0F8093FE0263
:1026B000F0E0E352FD4F80818093BB009091FE02D9
:1026C0008091FD0229C0809170038093BB0085EC4E
:1026D0008093BC0064CF90919203809191039817EE
:1026E00058F5E091920381E08E0F80939203F0E021
:1026F000EF58FC4F8081E9CFE091920381E08E0F8B
:10270000809392038091BB00F0E0EF58FC4F8083F0
:1027100090919203809191039817C8F285E8D8CFE1
:10272000E091920381E08E0F809392038091BB0031
:10273000F0E0EF58FC4F80838091940381115CCFCF
:1027400081E080936F0384EA8093BC00109295032C
:1027500026CF85EC8093BC001092950380911F03D7
:10276000803230F4E0911F03F0E0E150FD4F108221
:1027700060911F0370E0E0912A03F0912B038FEF2B
:1027800092E0099510921F030ACF1092930334CF61
:102790001F920F920FB60F9211242F933F934F93D6
:1027A0005F936F937F938F939F93AF93BF93EF93B9
:1027B000FF9380E480937C0080917A008064809312
:1027C0007A0080917A0086FDFCCF9091780080910C
:1027D00079008927982789279093DB028093DA0272
:1027E0008091DA029091DB0261E08B3F91050CF061
:1027F00060E086E00E94E708FF91EF91BF91AF9102
:102800009F918F917F916F915F914F913F912F9108
:102810000F900FBE0F901F9018950F931F93CF939B
:10282000DF93EAEBF3E01382128288EE93E0A0E0FC
:10283000B0E084839583A683B7832AE131E03183B6
:10284000208325EC30E03587248724EC30E037877F
:10285000268720EC30E0318B208B21EC30E0338B6D
:10286000228B22EC30E0358B248B26EC30E0378B4A
:10287000268B118E128E138E148EE7E5F4E01382F0
:10288000128284839583A683B7838CE291E091833F
:102890008083E6E3FCE0E491F0E0EE0FFF1FEC5DE7
:1028A000F34F85919491CEE9D4E099838883E8E150
:1028B000FCE0E491EA87E7E3FCE0E491F0E0EE0F6E
:1028C000FF1FEC5DF34F859194919B838A83E9E12F
:1028D000FCE0E491EB87E8E3FCE0E491F0E0EE0F4C
:1028E000FF1FEC5DF34F859194919D838C83EAE10A
:1028F000FCE0E491EC87E9E3FCE0E491F0E0EE0F2A
:10290000FF1FEC5DF34F859194919F838E83EBE1E4
:10291000FCE0E491ED87EAE3FCE0E491F0E0EE0F07
:10292000FF1FEC5DF34F8591949199878887ECE1C7
:10293000FCE0E491EE8761E088E00E94150961E027
:1029400089E00E94150961E08AE00E94150961E0B2
:102950008BE00E94150961E08CE00E94150988E077
:102960008F878BE0888B00910E0110910F0168E436
:1029700071E087E794E00E94F70FC5E7D4E01B867B
:102980001A8668E471E081E894E00E94F70F1983E9
:10299000088300910C0110910D0168E471E085E657
:1029A00094E00E94F70FC3E6D4E01B861A8668E421
:1029B00071E08FE694E00E94F70F19830883DF919E
:1029C000CF911F910F910895CF93DF9300D000D046
:1029D00000D0CDB7DEB7789484B5826084BD84B56D
:1029E000816084BD85B5826085BD85B5816085BD0A
:1029F00080916E00816080936E00109281008091C2
:102A00008100826080938100809181008160809349
:102A10008100809180008160809380008091B1006E
:102A200084608093B1008091B00081608093B00099
:102A300080917A00846080937A0080917A0082602D
:102A400080937A0080917A00816080937A008091EF
:102A50007A00806880937A001092C100E091CA03E6
:102A6000F091CB0382E08083E091C603F091C7032D
:102A70001082E091C803F091C9038FEC808310921B
:102A8000D203E091CE03F091CF0386E08083E09102
:102A9000CC03F091CD03808180618083E091CC03F1
:102AA000F091CD03808188608083E091CC03F09128
:102AB000CD03808180688083E091CC03F091CD03C9
:102AC00080818F7D808360E083E00E94150961E052
:102AD00087E00E94150961E08DE00E94150961E020
:102AE00086E00E9415098091AA04E091A204F09169
:102AF000A3049081892B80838091A904E091A00494
:102B0000F091A1049081892B80838091A804E091A9
:102B10009E04F0919F049081892B80838091AC0466
:102B2000E091A604F091A7049081892B8083809185
:102B3000AB04E091A404F091A504908180958923D1
:102B400080836AE070E080E090E00E946B098091F1
:102B5000AB04E091A404F091A5049081892B8083BB
:102B600060E081E20E944D0660E086EC0E944D0626
:102B700060E086E00E944D0660E083E10E944D0621
:102B800060E080E20E944D0660E080E40E944D0615
:102B900060E080E80E944D0608EF11E061E080E00F
:102BA0000E944D0601501109C9F760E08CE00E94B7
:102BB0004D061092B0041092AF041092B60406E4D1
:102BC00010E01093B8040093B7040E94650760E01A
:102BD00081E20E944D0660E086EC0E944D0660E0B6
:102BE00080E20E944D061093B8040093B70483E07E
:102BF0008093870410924E0310924D031092970316
:102C00001092B9031092950381E08093940310927F
:102C10006F0361E082E10E94E70861E083E10E94C6
:102C2000E7088091B9008E7F8093B9008091B90048
:102C30008D7F8093B90088E48093B80085E4809309
:102C4000BC0086E897E090932D0380932C0387E8DF
:102C500097E090932B0380932A0380ED0E94B70A9C
:102C6000853529F08EE591E00E94F50EFFCF8AEAC6
:102C70000E94DD0A90938904809388048CEA0E9464
:102C8000DD0A90938B0480938A048EEA0E94DD0A09
:102C900090938D0480938C0480EB0E94DD0A9093C6
:102CA00099048093980482EB0E94DD0A90939B0420
:102CB00080939A0484EB0E94DD0A90939D04809394
:102CC0009C0486EB0E94DD0A90938F0480938E040F
:102CD00088EB0E94DD0A90939104809390048AEB24
:102CE0000E94DD0A90939304809392048CEB0E94DF
:102CF000DD0A90939504809394048EEB0E94DD0A84
:102D0000909397048093960489E091E19093030156
:102D10008093020180916900837F846080936900C1
:102D2000E99A8091480381119BC1F8941092850023
:102D300010928400109280001092810088E09DE340
:102D400090938900809388008091810088608093AF
:102D500081008091810085608093810080916F0067
:102D6000826080936F0078940E94950682ED99E0CE
:102D70000E94AE0650E040E06EE077E282E991E02A
:102D80000E94CE0C48E050E06EE077E287E991E0E7
:102D90000E94CE0C65E774E0CE0101960E942810D7
:102DA00068E170E0CE0101960E94460FCE010196C7
:102DB0000E94861063E674E0CE0101960E942810FE
:102DC00060E270E0CE0101960E94460FCE010196AE
:102DD0000E94861068E873E180E090E00E946B0931
:102DE00083EA91E00E94C80D80910A0190910B0145
:102DF0000E942C0FFC01608171818281938142E0ED
:102E00000E94190E86E491E00E94C80D0E9495066A
:102E100082ED99E00E94AE0650E040E06EE077E27D
:102E200083EC91E00E94CE0C4BE150E066E070E054
:102E30008CEC91E00E94CE0C8CEA97E00E94AE06EA
:102E400080910A0190910B010E942C0FFC0160817E
:102E50007181828193810E94030F68EB7BE080E0A7
:102E600090E00E946B098EEC91E00E94C80D809169
:102E70000801909109010E942C0FFC016081718171
:102E80008281938142E00E94190E8FEE91E00E94B0
:102E9000F50E0E94950682ED99E00E94AE0650E084
:102EA00040E06EE077E288EF91E00E94CE0C8CEA81
:102EB00097E00E94AE0680910801909109010E945E
:102EC0002C0FFC0160817181828193810E94030F2C
:102ED00082ED99E00E94AE0646E150E068E470E0C1
:102EE00084E092E00E94CE0C82ED99E00E94AE0652
:102EF0004BE150E06BE470E086E092E00E94CE0C83
:102F000068EB7BE080E090E00E946B0988E092E053
:102F10000E94C80D80910601909107010E942C0F1C
:102F2000FC01608171818281938142E00E94190ECF
:102F300086E292E00E94F50E0E94950682ED99E0ED
:102F40000E94AE0650E040E06EE077E28EE292E052
:102F50000E94CE0C8CEA97E00E94AE06809106019A
:102F6000909107010E942C0FFC0160817181828188
:102F700093810E94030F68EB7BE080E090E00E9469
:102F80006B0987E392E00E94C80D80910401909143
:102F900005010E942C0FFC01608171818281938167
:102FA00042E00E94190E85E592E00E94F50E0E9413
:102FB000950682ED99E00E94AE0650E040E070E098
:102FC00060E08EE592E00E94CE0C8CEA97E00E94D1
:102FD000AE0680910401909105010E942C0FFC0126
:102FE00060817181828193810E94030F68EB7BE095
:102FF00080E090E00E946B090E94950682ED99E0C6
:103000000E94AE0648E050E06EE077E28CE692E087
:103010000E94CE0C69E471E0CE0101960E94F70F88
:1030200068E170E0CE0101960E94460FCE01019644
:103030000E94861065E571E0CE0101960E94F70FAF
:1030400060E270E0CE0101960E94460FCE0101962B
:103050000E94861068E873E180E090E00E946B09AE
:103060003BE9A32EB12C88248394912C50E0252E8B
:1030700050E0352E80914803811102C219821A82D4
:103080001B821C821D8261E085E00E94150960E0C0
:1030900085E00E94E70862E170E080E090E00E9435
:1030A0006B0961E085E00E94E708C5010197F1F72F
:1030B00060E085E00E94150901E117E285E00E94C9
:1030C000BE08892B09F0E8C101501109B9F76EEF6C
:1030D0007FEF072E000C880B990B0E94421E609315
:1030E0003E0370933F0380934003909341030E94FB
:1030F000950682ED99E00E94AE0650E040E06EE059
:1031000077E283EC91E00E94CE0C4BE150E066E068
:1031100070E08CEC91E00E94CE0C8CEA97E00E946B
:10312000AE066091440370914503072E000C880B96
:10313000990B0E94421E60933A0370933B03809365
:103140003C0390933D0389E792E00E94C80D609193
:103150003A0370913B0380913C0390913D0342E020
:103160000E94190E86E491E00E94C80D60913A0316
:1031700070913B0380913C0390913D030E94030FAB
:1031800060ED77E080E090E00E946B090E94950678
:1031900082ED99E00E94AE0650E040E06EE077E2FA
:1031A00088EF91E00E94CE0C8CEA97E00E94AE0678
:1031B0006091460370914703072E000C880B990B12
:1031C0000E94421E60933603709337038093380346
:1031D000909339038AE892E00E94C80D609136030B
:1031E00070913703809138039091390342E00E9437
:1031F000190E8FEE91E00E94F50E609136037091EA
:10320000370380913803909139030E94030F82EDB8
:1032100099E00E94AE0646E150E068E470E084E088
:1032200092E00E94CE0C82ED99E00E94AE064BE146
:1032300050E06BE470E086E092E00E94CE0C60ED1E
:1032400077E080E090E00E946B090E94950682ED95
:1032500099E00E94AE0650E040E06EE077E28EE238
:1032600092E00E94CE0C8CEA97E00E94AE060E948B
:103270000D0B0E94421E20E836EE45EC57E40E94FA
:10328000332021E03EED42E45EE30E94D9209B0121
:10329000AC0160E070E080E89FE30E94C61F20E080
:1032A0003AE24DE257E40E94A11E6093320370930C
:1032B000330380933403909335038CE992E00E94AA
:1032C000C80D609132037091330380913403909163
:1032D000350342E00E94190E86E292E00E94F50E4C
:1032E00060913203709133038091340390913503E0
:1032F0000E94030F60ED77E080E090E00E946B0990
:103300000E94950682ED99E00E94AE0650E040E0F2
:1033100070E060E08EE592E00E94CE0C8CEA97E0CF
:103320000E94AE060E940D0B0E94421E60932E0367
:1033300070932F0380933003909331038BEA92E0D4
:103340000E94C80D60912E0370912F03809130036D
:103350009091310320E030E048EC52E40E943320A9
:1033600042E00E94190E85E592E00E94F50E609100
:103370002E0370912F03809130039091310320E050
:1033800030E048EC52E40E9433200E94030F60EDCD
:1033900077E080E090E00E946B0980913603909185
:1033A0003703A0913803B091390380913203909193
:1033B0003303A0913403B091350360912E037091D3
:1033C0002F03809130039091310320E030E048ECEE
:1033D00052E40E94332020E030E44DE754E40E94A0
:1033E0003B1E18160CF4C7C00E94950682ED99E0AA
:1033F0000E94AE0650E040E06EE077E28AEB92E099
:103400000E94CE0C8CE896E00E942A0760ED77E0DF
:1034100080E090E00E946B090E94950682ED99E0A1
:103420000E94AE0650E040E06EE077E280EC92E071
:103430000E94CE0C8CE695E00E942A0760ED77E0B2
:1034400080E090E00E946B090E94950682ED99E071
:103450000E94AE0650E040E06EE077E287EC92E03A
:103460000E94CE0C8CE494E00E942A0760ED77E085
:1034700080E090E00E946B0961E08DE00E94E70827
:103480002114310409F4F6CD0E94F207882309F4CF
:10349000F1CD0E940000EECD01E117E285E00E942F
:1034A000BE08019721F401501109C1F710CE28E29E
:1034B000E22EF12C17E000E091E1C92E97E2D92E1F
:1034C00085E00E94BE08892B29F4F1E0CF1AD108CB
:1034D000B9F7FDCD0E9446092B013C0181E1C82EC0
:1034E00087E2D82E85E00E94BE08019729F481E08A
:1034F000C81AD108B9F7EBCD0E94460964197509BD
:1035000086099709693271058105910578F0E1E036
:10351000F0E0EC0FFD1FE00FF11D80819401012E02
:1035200001C0220F0A94EAF7822B8083111121C077
:103530000F5F17E0E1E0EE1AF10809F0BDCF8981D5
:10354000282F30E030934503209344039B81292F9B
:1035500030E03093470320934603890F61E070E029
:103560009D81891302C070E060E0719561957109D9
:10357000B0CD1150DFCF60912E0370912F03809159
:1035800030039091310320E030E048EC52E40E9497
:10359000332020E030E44DE754E40E94D420181694
:1035A0000CF06ECF60913603709137038091380331
:1035B0009091390320E030E0A9010E94D420181630
:1035C0000CF0B4C0609136037091370380913803DA
:1035D0009091390320E030E0A9010E94D420181610
:1035E00084F0609136037091370380913803909195
:1035F000390320E030E040E251E40E943B1E87FFA7
:1036000010C060913A0370913B0380913C0390910C
:103610003D0321EE3AEF4AEC52E40E94D420181602
:1036200044F1609136037091370380913803909193
:10363000390320E030E040E151E40E94D420181624
:1036400084F0609136037091370380913803909134
:10365000390320E030E040EA51E40E943B1E87FF3E
:1036600021C080913A0390913B03A0913C03B0911B
:103670003D030E94950682ED99E00E94AE0650E05F
:1036800040E06EE077E28EEC92E00E94CE0C8CE29D
:1036900093E00E942A0760ED77E080E090E00E94CE
:1036A0006B0941C0609136037091370380913803F4
:1036B0009091390320E030E048E951E40E94D420A1
:1036C00018167CF2609136037091370380913803AD
:1036D0009091390320E030E040EF51E40E943B1E1E
:1036E00087FDBFCF60913603709137038091380317
:1036F0009091390320E030E048EE51E40E94D4205C
:1037000018160CF4AECF6091360370913703809198
:1037100038039091390320E030E040E252E40E9407
:103720003B1E87FD9ECF61E087E0A8CE6091360307
:1037300070913703809138039091390320E030E095
:10374000A9010E943B1E87FFEECF60913A03709162
:103750003B0380913C0390913D0320E030E04CE836
:1037600052E40E94D4201816F4F66091320370914E
:103770003303809134039091350320E030E041E63B
:1037800054E40E94D420181674F60E94950682ED27
:1037900099E00E94AE0650E040E06EE077E284EDF2
:1037A00092E00E94CE0C8CE092E073CF8FE694E022
:1037B0000E94861085E694E00E94861081E894E0DD
:1037C0000E94861087E794E00C948610EF920F9386
:1037D0001F93CF93DF93E80134E047FD34E1042EDB
:1037E000000C550B57FF03C0519541955109E32E2D
:1037F000022F242FAE010E94041CCE01DF91CF9135
:103800001F910F91EF900895A9E0B0E0EAE0FCE18C
:103810000C94861F6A01F22EB02E102FFBE3AF2E00
:10382000A01608F41BE31F5F012F27E0AE014F5FD6
:103830005F4F0E94631DBC018981982F9970913060
:1038400009F43FC09BE2E1FC04C09E2D9170E0FCB6
:103850003AC05E2D5071E82FE87083FF46C084E0C7
:10386000911101C083E0EF2DE81B8F1508F0E0E017
:10387000D6018E2F20E2552351F1992329F0D6014C
:103880009C93C60101966C0196012D5F3F4FE2FEAD
:1038900024C08EE4D6018C9391E411969C931197E9
:1038A00012968C93D9018E2F90E281111BC0E20FEA
:1038B000F32FF11D10828EEF9FEF2996ECE00C9410
:1038C000A21F9DE2C6CF90E2C4CF2D9381508111FB
:1038D000FCCFCE0ED11CE0E0D0CF8EE6D6018C938B
:1038E00091E6DBCF9D938150E0CF482F447082FF5B
:1038F0003DC084E0911101C083E08F1510F4EF2DDD
:10390000E81BD6018E2F20E2552309F1992329F0D7
:10391000D6019C93C60101966C0196012D5F3F4F25
:10392000E2FE1BC089E4D6018C938EE411968C9341
:10393000119786E412968C93D9018E2F90E28823FA
:1039400009F4B5CF9D938150FACF2D938150811109
:10395000FCCFCE0ED11CE0E0D9CF89E6D6018C9306
:103960008EE611968C93119786E6E4CF9B0177FF44
:1039700002C030E020E0A1E0B0E0911102C0B0E070
:10398000A0E0F9013196AE0FBF1F8B2C912CBB200C
:1039900009F461C05401EFEFAE1ABE0AAA0DBB1DB7
:1039A000FA161B0619F014F04F2D4A1B511188C04E
:1039B000E3FC59C07601A42FB0E2A1114FC0C40EA0
:1039C000D11C992309F45BC040E0D6011196F601A1
:1039D00090836D01552309F448C0012F060F9A8189
:1039E000582F507184FF03C0913309F40150101611
:1039F0000CF047C0093008F008E0EEE2FE2E5B0153
:103A0000A01AB10885019194819491082F3F320743
:103A100029F4D601FC92F60131966F016217730703
:103A200094F1021713077CF5DB01A21BB30BAA2448
:103A3000A394B12CAC0EBD1EAA0DBB1D11968C918A
:103A400021503109D601119628153905F4F0F601F7
:103A500080836D01DBCFB12CA12CA0CFF701B193F6
:103A60007F01A150AACF9111B0CFD601942F50E37E
:103A700002C05D9391509111FCCFC40ED11C40E067
:103A8000ACCF01E0BACF80E3DBCF6217730731F42C
:103A9000963388F4953311F4552369F0F601808349
:103AA000FD01842F90E2811108C0A40FB11D1C926A
:103AB00090E080E002CF81E3F1CF91938150F3CF8A
:103AC000911183CF8ACF283008F027E03327DA011D
:103AD000990F311D87FD916000966105710539F4DC
:103AE00032602E5F3D9330E32A95E1F708959F3FC2
:103AF00030F080387105610509F03C5F3C5F3D9313
:103B0000913008F08068911DDF93CF931F930F933E
:103B1000FF92EF92192F987F9695E92F969596959B
:103B2000E90FFF27EC5BFE4F99273327EE24FF2494
:103B3000A701E70105900894079428F4360FE71EC3
:103B4000F81E491F511D660F771F881F991F069485
:103B5000A1F70590079428F4E70EF81E491F561F99
:103B6000C11D770F881F991F661F0694A1F7059046
:103B7000079428F4F80E491F561FC71FD11D880F40
:103B8000991F661F771F0694A1F70590079420F4EC
:103B9000490F561FC71FD81F990F661F771F881F11
:103BA0000694A9F784911095177041F0D695C795A2
:103BB00057954795F794E7941A95C1F7EAEEF0E028
:103BC00068941590159135916591959105907FE2D6
:103BD0007395E118F10A430B560BC90BD009C0F7D6
:103BE000E10CF11E431F561FC91FD01D7EF4703318
:103BF00011F48A95E6CFE894015030F0080F0AF4EA
:103C00000027021708F4202F2395022F7A3328F07B
:103C100079E37D932A95E9F710C07D932A9589F67B
:103C2000069497956795379517951794E118F10ABB
:103C3000430B560BC90BD00998F023957E917395D1
:103C40007A3308F070E37C932013B8F77E917061AB
:103C50007D9330F0839571E37D9370E32A95E1F7CE
:103C60001124EF90FF900F911F91CF91DF91992731
:103C700087FD909508950E947D1E08F481E00895C7
:103C8000E89409C097FB3EF49095809570956195F6
:103C90007F4F8F4F9F4F9923A9F0F92F96E9BB27AC
:103CA0009395F695879577956795B795F111F8CF28
:103CB000FAF4BB0F11F460FF1BC06F5F7F4F8F4F93
:103CC0009F4F16C0882311F096E911C0772321F089
:103CD0009EE8872F762F05C0662371F096E8862F21
:103CE00070E060E02AF09A95660F771F881FDAF778
:103CF000880F9695879597F90895990F0008550FA5
:103D0000AA0BE0E8FEEF16161706E807F907C0F061
:103D100012161306E407F50798F0621B730B840B69
:103D2000950B39F40A2661F0232B242B252B21F443
:103D300008950A2609F4A140A6958FEF811D811DE3
:103D400008950E94B41E0C94251F0E94171F38F07E
:103D50000E941E1F20F0952311F00C940E1F0C944E
:103D6000141F11240C94591F0E94361F70F3959F45
:103D7000C1F3950F50E0551F629FF001729FBB2762
:103D8000F00DB11D639FAA27F00DB11DAA1F649FFE
:103D90006627B00DA11D661F829F2227B00DA11DB1
:103DA000621F739FB00DA11D621F839FA00D611D37
:103DB000221F749F3327A00D611D231F849F600D58
:103DC000211D822F762F6A2F11249F5750409AF081
:103DD000F1F088234AF0EE0FFF1FBB1F661F771F0D
:103DE000881F91505040A9F79E3F510580F00C94D8
:103DF0000E1F0C94591F5F3FE4F3983ED4F3869551
:103E000077956795B795F795E7959F5FC1F7FE2B77
:103E1000880F911D9695879597F9089597F99F6753
:103E200080E870E060E008959FEF80EC0895002442
:103E30000A941616170618060906089500240A940F
:103E400012161306140605060895092E0394000C95
:103E500011F4882352F0BB0F40F4BF2B11F460FF24
:103E600004C06F5F7F4F8F4F9F4F089557FD90584D
:103E7000440F551F59F05F3F71F04795880F97FB2E
:103E8000991F61F09F3F79F08795089512161306E8
:103E90001406551FF2CF4695F1DF08C01616170617
:103EA0001806991FF1CF869571056105089408954C
:103EB000E894BB2766277727CB0197F90895F999EE
:103EC000FECF92BD81BDF89A992780B50895262F1F
:103ED000F999FECF1FBA92BD81BD20BD0FB6F894EF
:103EE000FA9AF99A0FBE019608950E94B71FA59FEE
:103EF000900DB49F900DA49F800D911D11240895E5
:103F00002F923F924F925F926F927F928F929F92E9
:103F1000AF92BF92CF92DF92EF92FF920F931F93D7
:103F2000CF93DF93CDB7DEB7CA1BDB0B0FB6F89488
:103F3000DEBF0FBECDBF09942A88398848885F84C8
:103F40006E847D848C849B84AA84B984C884DF8039
:103F5000EE80FD800C811B81AA81B981CE0FD11D1D
:103F60000FB6F894DEBF0FBECDBFED010895A29F3E
:103F7000B001B39FC001A39F700D811D1124911D3D
:103F8000B29F700D811D1124911D08955058BB27BB
:103F9000AA270E94DE1F0C94251F0E94171F38F0CD
:103FA0000E941E1F20F039F49F3F19F426F40C9450
:103FB000141F0EF4E095E7FB0C940E1FE92F0E94EE
:103FC000361F58F3BA17620773078407950720F066
:103FD00079F4A6F50C94581F0EF4E0950B2EBA2F29
:103FE000A02D0B01B90190010C01CA01A0011124FF
:103FF000FF27591B99F0593F50F4503E68F11A16AB
:10400000F040A22F232F342F4427585FF3CF46953B
:1040100037952795A795F0405395C9F77EF41F165D
:10402000BA0B620B730B840BBAF09150A1F0FF0F27
:10403000BB1F661F771F881FC2F70EC0BA0F621F13
:10404000731F841F48F4879577956795B795F79503
:104050009E3F08F0B0CF9395880F08F09927EE0F98
:104060009795879508950E9447200C94251F0E94DC
:104070001E1F58F00E94171F40F029F45F3F29F0DF
:104080000C940E1F51110C94591F0C94141F0E9474
:10409000361F68F39923B1F3552391F3951B550B04
:1040A000BB27AA2762177307840738F09F5F5F4F0B
:1040B000220F331F441FAA1FA9F335D00E2E3AF04A
:1040C000E0E832D091505040E695001CCAF72BD062
:1040D000FE2F29D0660F771F881FBB1F26173707B3
:1040E0004807AB07B0E809F0BB0B802DBF01FF27E5
:1040F00093585F4F3AF09E3F510578F00C940E1F95
:104100000C94591F5F3FE4F3983ED4F3869577955E
:104110006795B795F7959F5FC9F7880F911D96959D
:10412000879597F90895E1E0660F771F881FBB1FF9
:10413000621773078407BA0720F0621B730B840BA6
:10414000BA0BEE1F88F7E09508950E943E1F88F095
:104150009F5798F0B92F9927B751B0F0E1F0660F4B
:10416000771F881F991F1AF0BA95C9F714C0B1308C
:1041700091F00E94581FB1E008950C94581F672FCA
:10418000782F8827B85F39F0B93FCCF386957795BB
:104190006795B395D9F73EF49095809570956195A4
:1041A0007F4F8F4F9F4F08950E947D1E08F48FEF21
:1041B0000895FA01EE0FFF1F309621053105A1F198
:1041C0006115710561F48038BFE39B0749F168947C
:1041D0009038810561F08038BFEF9B0741F099234B
:1041E0004AF5FF3FE1053105210519F1E8940894EE
:1041F000E795D901AA2329F4AB2FBE2FF85FD0F39E
:1042000010C0FF5F70F4A695E0F7F73950F019F091
:10421000FF3A38F49F779F930DD00F9007FC90588A
:10422000089546F00C94141F60E070E080E89FE36E
:1042300008954FE79F775F934F933F932F930E948B
:10424000D9212F913F914F915F910E94A11E0C9413
:1042500036210E947D1E880B990B089529F416F0D3
:104260000C940E1F0C94581F0C94141F0E943E1F98
:10427000A8F39638A0F707F80F92E8942BE33AEAF0
:1042800048EB5FE70E94B71E0F920F920F924DB757
:104290005EB70F920E942122E8E6F0E00E946821BA
:1042A0004F915F91EF91FF91E595EE1FFF1F49F050
:1042B000FE57E0684427EE0F441FFA95E1F7419559
:1042C000550B0E949B210F9007FE0C948F2108959F
:1042D000DF93CF931F930F93FF92EF92DF927B01B7
:1042E0008C01689406C0DA2EEF010E94B41EFE0114
:1042F000E894A5912591359145915591A6F3EF014B
:104300000E94DE1FFE019701A801DA9469F7DF9091
:10431000EF90FF900F911F91CF91DF9108959B0136
:10432000AC0160E070E080E89FE30C9433200C94D3
:104330000E1F0C9455220E943E1FD8F39923C9F3F7
:10434000940F511DA3F39150504094F059F08823DD
:1043500032F0660F771F881F91505040C1F79E3F83
:1043600051052CF7880F911D9695879597F908951B
:104370005F3FACF0983E9CF0BB278695779567959C
:10438000B79508F4B1609395C1F7BB0F58F711F4D6
:1043900060FFE8CF6F5F7F4F8F4F9F4FE3CF0C944D
:1043A000591F16F00C9455220C94141F68940C9409
:1043B0000E1F0E943E1FA8F39923C1F3AEF3DF93B3
:1043C000CF931F930F93FF92C92FDD2788232AF0E5
:1043D0002197660F771F881FDAF720E030E040E86A
:1043E0005FEB9FE3883920F0803E38F021968F778D
:1043F0000E94C71FE0E9F0E004C00E94C71FEDEB78
:10440000F0E00E9468218B01BE01EC01FB2E6F578A
:1044100071097595771F880B990B0E94421E28E140
:1044200032E741E35FE30E94B41EAF2D9801AE0175
:10443000FF900F911F91CF91DF910E94DE1F0C948E
:10444000251FFA01DC01AA0FBB1F9B01AC01BF575E
:1044500028F4222733274427507820C0B75190F4FE
:10446000AB2F0024469537952795011CA395D2F3D1
:10447000002071F0220F331F441FB395DAF30ED0E2
:104480000C94C61F61307105A0E88A07B94630F464
:104490009B01AC016627772788279078309621F01A
:1044A000208331834283538308959F3F31F091509D
:1044B00020F4879577956795B795880F911D969508
:1044C000879597F90895DB018F939F930E94751F3D
:1044D000BF91AF91A29F800D911DA39F900DB29FA0
:1044E000900D11240895A1E21A2EAA1BBB1BFD01F9
:1044F0000DC0AA1FBB1FEE1FFF1FA217B307E407C3
:10450000F50720F0A21BB30BE40BF50B661F771F1A
:10451000881F991F1A9469F76095709580959095FA
:104520009B01AC01BD01CF010895052E97FB1EF440
:1045300000940E94AC2257FD07D00E94732207FC12
:1045400003D04EF40C94AC225095409530952195B3
:104550003F4F4F4F5F4F08959095809570956195AF
:104560007F4F8F4F9F4F0895B7FF0C94751F0E9488
:10457000751F821B930B0895EE0FFF1F0590F4919A
:10458000E02D09940F931F93CF93DF938230910511
:1045900010F482E090E0E091BB04F091BC0430E0C4
:1045A00020E0B0E0A0E0309799F42115310509F43E
:1045B0004AC0281B390B24303105D8F58A819B81EC
:1045C0006115710589F1FB0193838283FE0111C09E
:1045D000408151810281138148175907E0F0481743
:1045E000590799F4109761F012960C93129713964D
:1045F0001C933296CF01DF91CF911F910F910895B7
:104600000093BB041093BC04F4CF2115310551F085
:104610004217530738F0A901DB019A01BD01DF0100
:10462000F801C1CFEF01F9CF9093BC048093BB0494
:10463000CDCFFE01E20FF31F8193919322503109F8
:1046400039832883D7CF2091B9043091BA04232B22
:1046500041F420911201309113013093BA04209358
:10466000B90420911001309111012115310541F457
:104670002DB73EB74091140150911501241B350B05
:10468000E091B904F091BA04E217F307A0F42E1BED
:104690003F0B2817390778F0AC014E5F5F4F2417A6
:1046A000350748F04E0F5F1F5093BA044093B9048A
:1046B000819391939FCFF0E0E0E09CCFCF93DF9385
:1046C0000097E9F0FC01329713821282A091BB049B
:1046D000B091BC04ED0130E020E01097A1F42081FE
:1046E0003181820F931F2091B9043091BA042817A9
:1046F000390709F061C0F093BA04E093B904DF917F
:10470000CF910895EA01CE17DF07E8F54A815B8172
:104710009E0141155105B1F7E901FB83EA834991F7
:104720005991C40FD51FEC17FD0761F48081918169
:104730000296840F951FE901998388838281938172
:104740009B838A83F0E0E0E012968D919C91139711
:104750000097B9F52D913C911197CD010296820FEA
:10476000931F2091B9043091BA042817390739F6FC
:10477000309751F51092BC041092BB04B093BA0468
:10478000A093B904BCCFD383C28340815181840FED
:10479000951FC817D90761F44E5F5F4F88819981D3
:1047A000480F591F518340838A819B819383828361
:1047B0002115310509F0B0CFF093BC04E093BB04A0
:1047C0009ECFFD01DC01C0CF13821282D7CFB0E0B3
:1047D000A0E0EDEEF3E20C94821F8C01009751F4FF
:1047E000CB010E94C2228C01C801CDB7DEB7E0E147
:1047F0000C949E1FFC01E60FF71F9C01225031090B
:10480000E217F30708F49DC0D901CD91DC9111970F
:10481000C617D70798F0C530D10530F3CE010497FD
:104820008617970708F3C61BD70B2297C193D1931E
:104830006D937C93CF010E945E23D6CF5B01AC1AAF
:10484000BD0A4C018C0E9D1EA091BB04B091BC040E
:10485000512C412CF12CE12C109731F58091B904A9
:104860009091BA048815990509F05CC04616570660
:1048700008F058C08091100190911101009741F407
:104880008DB79EB74091140150911501841B950B73
:10489000E817F90708F055C0F093BA04E093B9049B
:1048A000F90171836083A0CF8D919C91119712962D
:1048B0006C90129713967C901397A815B90559F52B
:1048C0006C0142E0C40ED11CCA14DB0420F1AC011F
:1048D0004A195B09DA011296159780F06282738299
:1048E00051834083D9016D937C93E114F10471F0FD
:1048F000D7011396FC93EE93129776CF22968C0FE6
:104900009D1FF90191838083F301EFCFF093BC04E5
:10491000E093BB0469CF4816590608F42C017D01C9
:10492000D3019ACFCB010E94C2227C01009749F0AB
:10493000AE01B8010E94A424C8010E945E23870131
:1049400053CF10E000E050CFFB01DC0102C001902A
:104950000D9241505040D8F70895FB01DC010190C1
:104960000D920020E1F70895FB01DC014150504019
:1049700048F001900D920020C9F701C01D924150EE
:104980005040E0F7089516E0C2E2D6E004C0FE0110
:104990000E94BC222196C332D107C9F7F894FFCFF9
:1049A0009D099D0990015E012C01FA00C800960046
:1049B0000000BD0480000000000028088807B5073B
:1049C0007508E607C407D80700000000260AF909A1
:1049D0006E0ACF09F209DF09D0096E616E00696EB7
:1049E00066006F7666000D0A004D61792032332033
:1049F000323032300031393A34333A353900436F8E
:104A0000756C64206E6F742066696E642061207618
:104A1000616C696420424D503038352073656E7387
:104A20006F722C20636865636B20776972696E67AB
:104A300021004C617374004D6561737572656D651D
:104A40006E7400202D204D65617375726564204879
:104A5000756D69646974792056616C7565203A20BA
:104A600025200048756D6964697479002500202D42
:104A7000204D656173757265642054656D70657253
:104A800061747572652056616C7565203A2000204E
:104A900043656C636975730054656D70657261740C
:104AA000757265006F004300202D204D65617375A0
:104AB00072656420416C7469747564652056616C1C
:104AC0007565203A2000206D657465727300416C35
:104AD00074697475646500202D204D65617375726D
:104AE00065642050726573737572652056616C75CC
:104AF00065203A2000206D696C6962617200507215
:104B0000657373757265206D626172004D656173C6
:104B10007572696E672E2E2E00202D2048756D69E6
:104B200064697479203A20252000202D2054656D79
:104B30007065726174757265203A2000202D2041E5
:104B40006C746974756465203A2000202D205072C1
:104B5000657373757265203A200053756E6E790027
:104B6000506172746C7920436C6F75647900526186
:0A4B7000696E7900536E6F777900CB
:00000001FF
