:10000000C3C600000C9457160C942C160C940116C1
:100010000C94D6150C94AB150C9480150C945515B6
:100020000C942A15E2C60000E0C60000DEC60000FF
:10003000DCC60000DAC60000D8C60000D6C6000044
:10004000D4C600000C94A617D0C60000CEC600008F
:10005000CCC60000CAC60000C8C600000C94E0145C
:10006000C4C600000C94AA140C948014BEC60000F0
:10007000BCC60000BAC60000B8C60000B6C6000084
:10008000B4C60000B2C60000B0C60000AEC6000094
:100090000C944A140C942014A8C600000C948216E8
:1000A000A4C60000A2C60000A0C600009EC60000B4
:1000B0009CC600009AC6000098C6000096C60000C4
:1000C00094C6000092C6000090C600008EC60000D4
:1000D0008CC600008AC6000088C6000086C60000E4
:1000E00084C6000007634236B79BD8A71A39685602
:1000F00018AEBAAB558C1D3CB7CC5763BD6DEDFD4A
:10010000753EF6177231BF000000803F0800000006
:10011000BE922449123EABAAAA2ABECDCCCC4C3EFC
:1001200000000080BEABAAAAAA3E00000000BF00EB
:100130000000803F0000000000084178D3BB4387E7
:10014000D1133D190E3CC3BD4282AD2B3E68EC82FB
:1001500076BED98FE1A93E4C80EFFFBE01C4FF7F80
:100160003F000000000000407A10F35A00A0724ED9
:1001700018090010A5D4E80000E87648170000E44C
:100180000B54020000CA9A3B000000E1F505000094
:1001900080969800000040420F000000A0860100F9
:1001A0000000102700000000E803000000006400C9
:1001B000000000000A000000000001000000000034
:1001C0002C76D888DC674F0823DFC1DFAE59E1B158
:1001D000B796E5E3E453C63AE651997696E8E6C267
:1001E0008426EB898C9B62ED407C6FFCEFBC9C9F6E
:1001F00040F2BAA56FA5F490055A2AF75C936B6C90
:10020000F9676DC11BFCE0E40D47FEF520E6B50083
:10021000D0ED902E0300943577050080841E0800F1
:1002200000204E0A000000C80C333333330F986EA1
:1002300012831141EF8D2114893BE65516CFFEE65E
:10024000DB18D1844B381BF77C1D901DA4BBE42424
:10025000203284725E228100C9F124ECA1E53D27A1
:1002600000002100240027002A002D003000330068
:1002700001010000040107010A0100002000230021
:10028000260029002C002F0032000001000003018D
:100290000601090100000A0B02090C0D0E080703F4
:1002A0000401000000000000000000000000000049
:1002B000000000000000000000000000000000003E
:1002C00012111000000000000000000000000000FB
:1002D000000000000000000000000000000000001E
:1002E000000000000000000000000000000000000E
:1002F00000000000000000000000000000000000FE
:1003000000000000000000000000000000000000ED
:10031000000000808080808080E0380C04060203AA
:1003200003010103030206040C3820202020604052
:10033000C08000000000000000000000000000007D
:10034000FC060301000000000000000000000000A7
:10035000000000000000000000000000000000009D
:10036000000103FE0000000000000000000000008B
:1003700003060C1810101010101010101010101090
:100380001010101010101010101010101010101865
:10039000080C070100000000000000000000000041
:1003A0000000000000060F09090F00E02020E00017
:1003B0000F09090F00E02020E0000F09090F0600D7
:1003C000000000000000000000000000000000002D
:1003D0000000000000000000000000010301010017
:1003E0000000000000010103010000000000000007
:1003F00000000000000000000000000000000000FD
:1004000000000000000000000000000000000000EC
:1004100000000000000000000000000000000000DC
:1004200000000000000000000000000000000000CC
:100430000080E030180C0406020283C363233212EA
:10044000161C1C181010302060C080000000000036
:10045000000000000000000000000080C0602030AC
:10046000101F0000000080F0FE03010000000000EB
:100470000000000000000080C04061273C30206088
:1004800040C080000000000000007CEF0100000080
:1004900000F01C0603010101000000000000000044
:1004A000000000000000000100000000000000004B
:1004B000000001073C2060C08000000103060C0C16
:1004C000080F1C30206040C0C0C0C0C0C0C0C0C049
:1004D000C0C0C0C0C0C0C0C0C0C0C0C0C0C0C0C01C
:1004E000C0C0C0C0C04040603B0F00000000000022
:1004F00000000000000000000000000000000000FC
:1005000000000000000000000000000000000000EB
:1005100000000000000000000000000000000000DB
:1005200000000000000000000000000000000000CB
:1005300080800000000000000000000000000000BB
:1005400000000000000000000000000000000000AB
:1005500000000000000000103060C08000000000BB
:10056000000F08000000000000381C070000000019
:10057000000000000000000000000000000000007B
:10058000000000404040404040008080E0F8CCC681
:10059000C28381810101030306061C70E00004068A
:1005A0000203030100000000000000000000000042
:1005B0000080E0203010181C0E0301000000000035
:1005C00000000101030E1818103070FC87000006AF
:1005D0000604040C00000000000000000000000001
:1005E000000F38606040C0C0406060604040C0C0E4
:1005F000404060606040C0C04060303D0F0000007F
:1006000000000000000000000000000000000000EA
:1006100000000000000000000000000000000000DA
:1006200000000000000000000000000000000000CA
:1006300000000000000000000000000000000000BA
:1006400000000000000000000000000000000000AA
:10065000000000000000000000000000000000009A
:10066000000000000000000000000000000000008A
:100670000080808080C06030180C04040404040CE6
:100680001830E0E060602020206060C08000000042
:10069000000000000000000000000000000038FE24
:1006A000830100000000000000C0F0180C040404E6
:1006B0000603010000000000000000000103020228
:1006C0000202060CF8E0000000000000000000003C
:1006D00001030202020202020203070C181010308A
:1006E000303030303030303030303030303030102A
:1006F0001010180C070100000000000000000000AE
:1007000000000000000080F80F00000000C0FC0F97
:1007100000000000C07C0700000000E07E07000031
:1007200000000000000000000000000000000000C9
:1007300000000000000001000000000000010000B7
:1007400000000000010000000000000100000000A7
:100750000000000000000000000000000000000099
:100760000000000000000000000000000000000089
:1007700000C0C000000000000000000000000000F9
:100780000000000000000000000000000000000069
:100790000000000000183870E0C0800000000080F9
:1007A000809F9F80800000000080C0E070381800AB
:1007B0000000000000000000000000000000000039
:1007C000808080808080800000E1F80C06030101B9
:1007D00001010101010103060CF8E10000808080A5
:1007E0008080808000000000000000000000000009
:1007F000010101010101010000871F3060C08080FC
:10080000808080808080C060301F870000010101EF
:1008100001010101000000000000000000000000D4
:100820000000000000181C0E07030100000000017A
:1008300001F9F90101000000000103070E1C180076
:1008400000000000000000000000000000000000A8
:100850000000000000000000000000000000000098
:100860000003030000000000000000000000000082
:10087000000000000000000000000E182D0D000018
:100880000000000000000000000000000000103820
:1008900038383838383838100000000000000000C0
:1008A0000000000000000000000000000000000048
:1008B0000000000000000000000000000000000038
:1008C00000000000000000000040E0E040000000E8
:1008D0000000000002060E0E0E0E0E0E06020000B4
:1008E0000000103838383838383838100000000028
:1008F00080C0E0E0E0E0E0E0C080000000FCFAF64C
:100900000E0E0E0E0E0EF6FAFC0000EFC78300006E
:100910000000000083C7EF00007FBFDFE0E0E0E001
:10092000E0E0DFBF7F0000000000000000000000EA
:10093000F0F8FC000000000000000000000083C789
:10094000EF00000000000000000000001F3F7F00DB
:10095000000002060E0E0E0E0E0EF6FAFC0000E06F
:10096000D0B83838383838383B170F00007FBFDF31
:10097000E0E0E0E0E0E0C0800000000002060E0ED3
:100980000E0E0E0EF6FAFC0000001038383838381B
:100990003838BBD7EF00000080C0E0E0E0E0E0E0E6
:1009A000DFBF7F0000FCF8F0000000000000F0F85E
:1009B000FC00000F173B383838383838BBD7EF0009
:1009C000000000000000000000001F3F7F0000FC4E
:1009D000FAF60E0E0E0E0E0E06020000000F173B6A
:1009E000383838383838B8D0E000000080C0E0E04F
:1009F000E0E0E0E0DFBF7F0000FCFAF60E0E0E0E36
:100A00000E0E0602000000EFD7BB383838383838F1
:100A1000B8D0E000007FBFDFE0E0E0E0E0E0DFBF73
:100A20007F00000002060E0E0E0E0E0EF6FAFC00FF
:100A30000000000000000000000083C7EF0000007D
:100A400000000000000000001F3F7F0000FCFAF6DD
:100A50000E0E0E0E0E0EF6FAFC0000EFD7BB383865
:100A600038383838BBD7EF00007FBFDFE0E0E0E088
:100A7000E0E0DFBF7F0000FCFAF60E0E0E0E0E0E59
:100A8000F6FAFC00000F173B383838383838BBD737
:100A9000EF00000080C0E0E0E0E0E0E0DFBF7F00CA
:100AA0000608205F0000000000000000002F00008A
:100AB00000000700070000147F147F1400242A7F21
:100AC0002A120023130864620036495522500000A0
:100AD0000503000000001C224100000041221C0010
:100AE0000014083E08140008083E0808000000A092
:100AF000600000080808080800006060000000208E
:100B000010080402003E5149453E0000427F40006B
:100B1000004261514946002141454B3100181412F1
:100B20007F10002745454539003C4A4949300001BE
:100B30007109050300364949493600064949291E0D
:100B4000000036360000000056360000000814226F
:100B5000410000141414141400004122140800026F
:100B60000151090600324959513E007C1211127C94
:100B7000007F49494936003E41414122007F4141C1
:100B8000221C007F49494941007F09090901003EB3
:100B90004149497A007F0808087F0000417F4100F1
:100BA000002040413F01007F08142241007F404067
:100BB0004040007F020C027F007F0408107F003E4F
:100BC0004141413E007F09090906003E4151215E35
:100BD000007F091929460046494949310001017F32
:100BE0000101003F4040403F001F2040201F003FC8
:100BF0004038403F0063140814630007087008077A
:100C000000615149454300007F414100AA55AA5562
:100C1000AA55000041417F00000402010204004087
:100C20004040404000000305000000205454547828
:100C3000007F484444380038444444200038444449
:100C4000487F00385454541800087E0901020018E7
:100C5000A4A4A47C007F080404780000447D400024
:100C6000004080847D00007F102844000000417F08
:100C70004000007C04180478007C080404780038E4
:100C80004444443800FC242424180018242418FC6C
:100C9000007C0804040800485454542000043F44D5
:100CA0004020003C4040207C001C2040201C003C98
:100CB0004030403C004428102844001CA0A0A07CE8
:100CC000004464544C440000107C8200000000FF8B
:100CD00000000000827C10000000060909060102E5
:100CE000102020080810204010204080020102013E
:100CF00008040201010204081020408080402010F6
:100D0000080402018004020180402010080402014E
:100D100008040201010204081020408001020408B6
:100D20001020408000002200250028002B002E000B
:100D30003100340002010000050108010B01050526
:100D40000505070508080808020202020A0A080841
:100D5000040404040101010101010101030303036F
:100D600003030303040707070C0C0C0C0C0C0C0CFE
:100D70000202020206060606060606060B0B0B0B0F
:100D80000B0B0B0BF817872311241FBECFEFD1E2FB
:100D9000DEBFCDBF00E00CBF28E0A8ECB5E001C08D
:100DA0001D92AE36B207E1F715E0A0E0B2E0E6EA48
:100DB000F8E500E00BBF02C007900D92A83CB10718
:100DC000D9F716E0C3ECD6E000E006C02197010990
:100DD000802FFE010E94142AC23CD10780E0080740
:100DE000A9F70E9405190C94422C0AC99091450854
:100DF000E0913F08F09140082081909592239083E4
:100E0000E0913B08F0913C089091430820816111EA
:100E100030C090959223908328E0E0913908F091BA
:100E20003A0890914208308187FF25C0932B908328
:100E3000880F90914108E0913708F091380830818F
:100E4000909593239083000090914108E09137089A
:100E5000F09138083081932B90832150F1F68091E6
:100E60004508E0913F08F09140089081892B8083EC
:100E70000895922BD0CF90959323D9CFA7E3B8E0D4
:100E800052969C938E935197FC01249153962C93E8
:100E900053973196E4915496EC935497FC01329613
:100EA000E4915596EC9355970396FC0184915696E0
:100EB0008C93569757961C920895CF93DF93809109
:100EC0004F0881110DC060E080E490DF60E080E8B1
:100ED0008DDFC8EFD1E061E080E088DF2197D9F7AE
:100EE000DF91CF9108952091B10681E0213208F081
:100EF00044C080918D068111FCCF8091B00692E0B4
:100F000090938D0691E090938C069FEF90938B06C3
:100F100010928A0620938906A0E9B6E0E9E6F6E099
:100F200090E0291331C01092680690916806880FEE
:100F3000892B8093680680916706813049F510926D
:100F40006706809168068093BB008091BC0083FD9A
:100F5000F8CF85EC8093BC0080918D068230E1F360
:100F600080918B068F3FB1F080918B068032A1F08B
:100F700080918B06803391F084E010928F0610925E
:100F8000B10610928E0608953D9131939F5FC9CFAF
:100F900085EEE0CF80E0F1CF82E0EFCF83E0EDCFD0
:100FA000CF93DF9360E081E221DFC7E3D8E0898D52
:100FB00060E080681BDF60E086E018DF60E083E1CE
:100FC00015DF60E080E212DF60E08CE00FDF188E5A
:100FD000DF91CF910895EF92FF921F93CF93DF930C
:100FE00020914F08211127C0EC0111E060E0812F12
:100FF0008064FCDE60E084E9F9DEF12CE12CF7018D
:10100000EC0FFD1F849161E0F1DE8FEFE81AF80A22
:1010100080E3E816F10499F71F5FE096173031F787
:1010200060E080E4E3DE60E080E8DF91CF911F9133
:10103000FF90EF90DBCEDF91CF911F91FF90EF906B
:10104000089508950895AF92BF92CF92DF92EF92E4
:10105000FF920F931F93CF93DF936C017B018B0162
:10106000040F151FEB015E01AE18BF08C017D107B2
:1010700059F06991D601ED91FC910190F081E02D3C
:10108000C6011995892B79F7C501DF91CF911F9181
:101090000F91FF90EF90DF90CF90BF90AF900895A9
:1010A000FC01538D448D252F30E0842F90E0821B6E
:1010B000930B541710F0CF96089501970895FC01F3
:1010C000918D828D981761F0A28DAE0FBF2FB11D4B
:1010D0005D968C91928D9F5F9F73928F90E00895A3
:1010E0008FEF9FEF0895FC01918D828D981731F05D
:1010F000828DE80FF11D858D90E008958FEF9FEFB1
:101100000895FC01918D228D892F90E0805C9F4F86
:10111000821B91098F739927089586EB96E0F1DF82
:1011200021E0892B09F420E0822F089583E597E0E0
:10113000E8DF21E0892B09F420E0822F0895FC01EB
:10114000A48DA80FB92FB11DA35ABF4F2C91848D28
:1011500090E001968F739927848FA689B7892C9385
:10116000A089B1898C91837080648C93938D848DD8
:10117000981306C00288F389E02D80818F7D8083DB
:101180000895EF92FF920F931F93CF93DF93EC019B
:1011900081E0888F9B8D8C8D98131AC0E889F9891E
:1011A000808185FF15C09FB7F894EE89FF89608321
:1011B000E889F98980818370806480839FBF81E0A2
:1011C00090E0DF91CF911F910F91FF90EF900895E4
:1011D000F62E0B8D10E00F5F1F4F0F731127E02EBF
:1011E0008C8D8E110BC00FB607FCFACFE889F989F8
:1011F000808185FFF5CFCE01A2DFF2CFEB8DEC0F22
:10120000FD2FF11DE35AFF4FF0829FB7F8940B8F2B
:10121000EA89FB8980818062D0CFCF93DF93EC0194
:10122000888D8823B1F0AA89BB89E889F9898C91D6
:1012300085FD03C0808186FD0CC00FB607FCF7CF8B
:101240008C9185FFF2CF808185FFEDCFCE0177DFD6
:10125000EACFDF91CF91089580E090E0892B21F0D3
:1012600065DF81110E94000080E090E0892B21F071
:1012700054DF81110E94000080E090E0892B49F04A
:1012800080E090E0892B29F00E94000081110E94EB
:10129000000080E090E0892B49F080E090E0892B0D
:1012A00029F00E94000081110C94000008958150E3
:1012B000823108F05AC0E82FF0E08827ED59F64F48
:1012C0008F4F0C94142A8309870975097B097F09BC
:1012D000B5098A09900994099A099E09A209A809E1
:1012E000AC09B509B009B609BA09809180008F77B9
:1012F000809380000895809180008F7DF9CF809148
:101300008000877FF5CF84B58F7784BD089584B53D
:101310008F7DFBCF8091B0008F778093B0000895D0
:101320008091B0008F7DF9CF809190008F7780936E
:1013300090000895809190008F7DF9CF809190006A
:10134000877FF5CF8091A0008F778093A0000895CC
:101350008091A0008F7DF9CF8091A000877FF5CF8D
:10136000809120018F778093200108958091200142
:101370008F7DF9CF80912001877FF5CFCF93DF93C9
:10138000282F30E0F901EC56FD4F8491F901E2522B
:10139000F34FD491F901E25CF24FC491CC2399F060
:1013A000811185DFEC2FF0E0EE0FFF1FE658FD4FB7
:1013B000A591B491EC91ED2381E090E009F480E0F7
:1013C000DF91CF91089580E090E0FACF1F93CF9303
:1013D000DF93282F30E0F901EC56FD4F8491F9019D
:1013E000E252F34FD491F901E25CF24FC491CC2365
:1013F000A1F0162F81115BDFEC2FF0E0EE0FFF1F45
:10140000EC5DF24FA591B4918FB7F894EC91111166
:1014100008C0D095DE23DC938FBFDF91CF911F9161
:101420000895DE2BF8CFCF93DF9390E0FC01E252DA
:10143000F34F2491825C924FFC0184918823D1F078
:1014400090E0880F991FFC01E05AFD4FA591B491DF
:10145000FC01EC5DF24FC591D49161110EC09FB7B4
:10146000F8948C91E22FE0958E238C932881E223CF
:10147000E8839FBFDF91CF9108958FB7F894EC91E7
:10148000E22BEC938FBFF6CF3FB7F8948091100614
:1014900090911106A0911206B091130626B5A89B53
:1014A00005C02F3F19F00196A11DB11D3FBFBA2FF6
:1014B000A92F982F8827BC01CD01620F711D811DB6
:1014C000911D42E0660F771F881F991F4A95D1F73B
:1014D00008958F929F92AF92BF92CF92DF92EF9238
:1014E000FF924B015C01D0DF6B017C01CDDF6C19F9
:1014F0007D098E099F09683E734081059105B0F30F
:1015000021E0821A9108A108B10888EEC80E83E094
:10151000D81EE11CF11C81149104A104B10431F71F
:10152000FF90EF90DF90CF90BF90AF909F908F9003
:101530000895089585ED8093BC008091BC0084FDE2
:10154000FCCF10928D0608952091EB05260F3327CE
:10155000331F21323105ECF420918D06FC0190E01F
:1015600080E0243069F082E00895A091EB0521919C
:10157000AC0145535A4FA40FB52FB11D2C930196C2
:10158000861798F38091EB05680F6093EB0580E078
:10159000089581E008950895E091460680914506FA
:1015A000E81730F4F0E0E95BF94F808190E00895AE
:1015B0008FEF9FEF089590914606809145062FEF9B
:1015C0003FEF981748F4E92FF0E0E95BF94F2081ED
:1015D00030E09F5F90934606C901089580914506CB
:1015E00090914606891B990B0895CF92DF92EF9256
:1015F000FF920F931F93CF93DF937C01CB018A015E
:1016000020918E06222389F0EB016B01C40ED51EBA
:10161000CC15DD0561F06991D701ED91FC91019048
:10162000F081E02DC7011995F3CF642F8DDFC8013C
:10163000DF91CF911F910F91FF90EF90DF90CF90AE
:101640000895CF93DF931F92CDB7DEB769832091C2
:101650008E062223F9F02091B106203258F021E0C5
:1016600030E0FC013383228390E080E00F90DF9133
:10167000CF91089580918F06E82FF0E0E057F94F61
:10168000998190838F5F80938F068093B10681E06C
:1016900090E0ECCF61E0CE01019656DFF8CFCF931A
:1016A000C82F81E080938E0687E78093B006109262
:1016B0008F061092B10664EF80EF97E0C2DF6C2FC7
:1016C00080EF97E0BEDFCF910ECC90E080E00895F0
:1016D00090918D069111FCCF282F91E090938D066B
:1016E00090938C063FEF30938B0610928A06380F4A
:1016F0003093890690936806909168069E6E909349
:10170000680690916706913019F5109267069091DE
:1017100068069093BB009091BC0093FDF8CF95ECC8
:101720009093BC0090918D069130E1F390918A06E0
:10173000981710F420918A06A9E6B6E0E7E4F6E0EF
:1017400080E0821307C010924606809345060895F4
:1017500095EEE6CF9D9191938F5FF3CFCF93DF937B
:10176000C1E0C0938E0697E79093B00610928F0663
:101770001092B106682F80EF97E063DFB4DBC0936F
:101780008E0610928F061092B10682E090E0A0DFE4
:1017900080EF97E010DFD82F80E0C82F80EF97E030
:1017A0000ADFC82BD92B9FDBCE01DF91CF910895A3
:1017B000CF93C1E0C0938E0697E79093B006109246
:1017C0008F061092B106682F80EF97E03ADF8BDB2F
:1017D000C0938E0610928F061092B10681E090E0C1
:1017E00077DF80EF97E0E7DEC82F7DDB8C2FCF918E
:1017F00008954F925F926F927F928F929F92AF92D5
:10180000BF92CF92DF92EF92FF92CF93DF9300D0FF
:101810001F921F92CDB7DEB78EE241DF65E070E028
:1018200080E090E056DE86EF99DF4C01B12CA12CD0
:10183000809120088295880F880F807C8C5C2FDF38
:1018400080912008811171C165E070E080E090E036
:1018500040DE86EF83DFB0E0A0E0CC24D82EE92E76
:10186000FA2E88EFA5DFA7019601282B29833A835A
:101870004B835C83309120083D83809135089091A3
:101880003608A5019401281B390B41095109A09183
:101890003308B09134080E9443274B015C01AFE04C
:1018A000B594A79497948794AA95D1F760912D0841
:1018B00070912E08072E000C880B990BBBE0660F69
:1018C000771F881F991FBA95D1F720912F08309163
:1018D0003008032E000C440B550B280D391D4A1DF2
:1018E0005B1D0E94F829820E931EA41EB51E750171
:1018F000640140EAC41A4FE0D40AE108F108A701E4
:101900009601C701B6010E94C7294B015C018CE01A
:10191000B594A794979487948A95D1F7A0912508B8
:10192000B09126080E941C2A2B013C019DE0759471
:101930006794579447949A95D1F7A0912708B0914E
:101940002808A50194010E941C2A9C01552737FDF7
:101950005095452F240D351D461D571D2E5F3F4FB9
:101960004F4F5F4F62E055954795379527956A959C
:10197000D1F730584F4F5F4FA0913108B0913208E6
:101980000E9443272B013C017FE076946794579493
:1019900047947A95D1F788E090E05D81851B9109A5
:1019A00029813A814B815C8104C0569547953795D2
:1019B00027958A95D2F729833A834B835C83A0913C
:1019C0002908B0912A08A50194010E941C2A4B0104
:1019D0005C01EBE0B594A79497948794EA95D1F7CE
:1019E000A0912308B0912408A70196010E941C2A07
:1019F000FBE09595879577956795FA95D1F7680DF2
:101A0000791D8A1D9B1D8090210890902208092C29
:101A1000000CAA08BB08A2E0880C991CAA1CBB1CDD
:101A2000AA95D1F7680D791D8A1D9B1D0D8004C0F4
:101A3000660F771F881F991F0A94D2F76E5F7F4F3A
:101A40008F4F9F4F24E030E040E050E00E94F829A3
:101A500089819A81AB81BC81821B930BA40BB50B4E
:101A60009C01AD0160E573EC80E090E00D8004C066
:101A700096958795779567950A94D2F70E94C7291E
:101A800097FD66C0660F771F881F991FA3019201FB
:101A90000E94D62969017A019927F7FC9A958F2D22
:101AA0007E2D6D2D9B01AC010E94C7299B01AC01CD
:101AB000AEEDBBE00E9443274B015C01A3E4B3EE13
:101AC000A70196010E941E2ABC01992777FD9095D7
:101AD000892F4501BB2497FCB094AB2C680D791D70
:101AE0008A1D9B1D6153714F8F4F9F4F44E0959509
:101AF0008795779567954A95D1F76C0D7D1D8E1D5D
:101B00009F1D0F900F900F900F900F90DF91CF912E
:101B1000FF90EF90DF90CF90BF90AF909F908F900D
:101B20007F906F905F904F900895813029F468E026
:101B300070E080E090E08CCE823029F46EE070E0BE
:101B400080E090E085CE6AE170E080E090E080CEB9
:101B5000A30192010E94D62969017A01CC0CDD1CF7
:101B6000EE1CFF1C99CF0F931F93CF93DF93C2EB13
:101B7000D6E08C01025B1640C8018C0F9D1F0E94AD
:101B80002D27899386E0C63BD807B1F782EB96E014
:101B9000DF91CF911F910F9108952F923F924F9215
:101BA0005F926F927F928F929F92AF92BF92CF92ED
:101BB000DF92EF92FF920F931F93CF93DF9300D0AA
:101BC000CDB7DEB74C017B836A8380914F088111CA
:101BD000C2C0F40101900020E9F731978F01081984
:101BE00019096E307742E9F420914A08209FC0011C
:101BF000219F900D112424E530E0281B390B3B83F5
:101C00002A8337FF04C02F5F3F4F3B832A838A819B
:101C10009B81959587959B838A8397FF02C01B8242
:101C20001A823A0183E0759467948A95E1F7F12C62
:101C3000E12CE016F1060CF08EC080914F08811166
:101C400086C080914A0890E0E89E9001E99E300DA0
:101C5000F89E300D11244A815B81240F351F820FBD
:101C6000931F853591050CF072C080914B088695C5
:101C700086958695860D972D911D07970CF067C068
:101C8000F401EE0DFF1D2080D12CC12C522F506885
:101C90005983312C80914B0886958695869560E016
:101CA0008C151D0409F00CF44DC08C2D860D80643C
:101CB0009DD860E089819AD880914B088695869559
:101CC000869590914A08899FC001112420914C0863
:101CD000A101421B5109849F2001859F500C949FB4
:101CE000500C1124B12CA12C54E0450E511C209114
:101CF0004A0830E0A216B3060CF5C29EC001C39E8E
:101D0000900DD29E900D1124F201EA0DFB1D8E0F55
:101D10009F1FE0914808F0914908E80FF91F809152
:101D20004E08811107C0849161E060D88FEFA81A36
:101D3000B80ADDCF849161E08095F7CF9FEFC91A93
:101D4000D90AA8CF80E452D860E080E84FD82FEFBE
:101D5000E21AF20A6ECF0F900F900F90DF91CF91A1
:101D60001F910F91FF90EF90DF90CF90BF90AF90B9
:101D70009F908F907F906F905F904F903F902F90AB
:101D80000895FB0101900020E9F73197AF01461B50
:101D9000570B59C98F929F92AF92BF92EF92FF92C9
:101DA0000F931F93CF93DF93CDB7DEB7A1970FB6F5
:101DB000F894DEBF0FBECDBF7C01FA01CB0119A2A2
:101DC000223008F42AE08E010F5D1F4F822E912CE5
:101DD000B12CA12CBF01A50194010E94D629F901C3
:101DE000CA016A3004F5605DD8016E938D01232B22
:101DF000242B252B79F790E080E0109719F0BD0196
:101E0000C701BFDFA1960FB6F894DEBF0FBECDBFEE
:101E1000DF91CF911F910F91FF90EF90BF90AF9006
:101E20009F908F900895695CDFCF4F925F926F9281
:101E30007F928F929F92AF92BF92CF92DF92EF925A
:101E4000FF920F931F93CF936B017C01742EAC0113
:101E50009B010E94AA2868E472E0811126C0460115
:101E60005701E894B7F82FEF3FEF4FE75FE7C50161
:101E7000B4010E94AA2881110CC02FEF3FEF4FE759
:101E80005FE7C501B4010E9414266CE472E01816E5
:101E900064F02FEF3FEF4FE75FE4C701B6010E9408
:101EA0005A281816A4F460E572E083E597E0CF9114
:101EB0001F910F91FF90EF90DF90CF90BF90AF9068
:101EC0009F908F907F906F905F904F905ACF2FEFA1
:101ED0003FEF4FE75FECC701B6010E94142687FD74
:101EE000E2CF20E030E0A901C701B6010E9414262C
:101EF00010E000E087FF09C06DE283E597E041D97B
:101F00008C01F7FAF094F7F8F094C0E060E070E02C
:101F100080E09FE37C1641F020E030E040E251E4B5
:101F20000E94C127CF5FF6CFA70196010E945D27CF
:101F30002B013C010E942E284B015C012AE0BC01D0
:101F4000A40183E597E026DF7C01E00EF11ECC239F
:101F5000C1F1C501B4010E9418269B01AC01C30167
:101F6000B2010E945C274B015C016EE283E597E0C1
:101F700008D9E80EF91EC15020F120E030E040E21F
:101F800051E4C501B4010E9479262B013C010E9455
:101F90002E284B01B12CA12C2AE0B501A40183E528
:101FA00097E0F8DEE80EF91EC501B4010E9418267C
:101FB0009B01AC01C301B2010E945C274B015C0193
:101FC000DACFC701CF911F910F91FF90EF90DF9073
:101FD000CF90BF90AF909F908F907F906F905F90C9
:101FE0004F900895CF93DF93FC0144815581608128
:101FF000718186EB96E027D8EC0164E572E086EB10
:1020000096E0BFDE8C0F9D1FDF91CF9108950F9357
:102010001F93CF93DF93EC01B4DE8C0164E572E093
:10202000CE01AFDE800F911FDF91CF911F910F91F5
:102030000895A7CE8F929F92AF92BF92CF92DF92D8
:10204000EF92FF920F931F93CF93DF93FC010190C8
:102050000020E9F731978F01081B190B7C01D0E0B4
:10206000C0E0A9F430E020E081E0232B09F080E01B
:10207000DF91CF911F910F91FF90EF90DF90CF9064
:10208000BF90AF909F908F900895C1E0D0E02FB7A0
:10209000F8948091410690914206A0914306B09138
:1020A00044062FBF8093BE069093BF06A093C00640
:1020B000B093C10686EB96E002D897FF54C02FB7C5
:1020C000F8948091410690914206A0914306B09108
:1020D00044062FBF4091BE065091BF066091C006D6
:1020E0007091C106841B950BA60BB70B4091BA06E5
:1020F0005091BB066091BC067091BD068417950790
:10210000A607B707B8F22FEF3FEFAECF209709F43D
:10211000BECF4F01AE012197D4012E914D01022E69
:10212000000C330B2817390719F0209799F7AFCF18
:10213000209709F4AACFB7016F01CC1ADD0A30E06D
:1021400020E0DB01AD90BD01D601BD906D01AB106B
:1021500005C02F5F3F4F2C173D0798F3C217D307D9
:10216000C9F6EA0194CFF701EC0FFD1F2081022E82
:10217000000C330B2817390749F621960C171D0759
:1021800009F085CF6FCFAF92BF92CF92DF92EF92DF
:10219000FF920F931F93CF93DF93CDB7DEB75B0111
:1021A000CDB6DEB6FC010481158198012F5F3F4F4B
:1021B0004DB75EB7421B530B0FB6F8945EBF0FBE10
:1021C0004DBFEDB7FEB731967F0140914F084111E9
:1021D0000BC0232B21F001151105B1F41082A501CC
:1021E0006EE077E2C701D9DC0FB6F894DEBE0FBE11
:1021F000CDBEDF91CF911F910F91FF90EF90DF90B7
:10220000CF90BF90AF900895FC0160817181A801CB
:10221000C7010E94332CF701E00FF11FDFCFEF92CF
:10222000FF920F931F93CF93DF93CDB7DEB76B97DA
:102230000FB6F894DEBF0FBECDBF20914F0821111D
:102240000DC07A018E010F5F1F4F21E040E00E9418
:10225000A723A7016EE077E2C8019FDC6B960FB65B
:10226000F894DEBF0FBECDBFDF91CF911F910F91CC
:10227000FF90EF9008950F931F93CF93DF93EC019E
:1022800088819981009759F02A813B812617370769
:1022900030F081E0DF91CF911F910F9108958B0174
:1022A0006F5F7F4F0E94472B009759F09983888377
:1022B0001B830A832C813D81232B59F7FC0110825B
:1022C000E8CF80E0E7CFEF92FF920F931F93CF9379
:1022D000DF936115710541F480E0DF91CF911F918B
:1022E0000F91FF90EF90089541155105A9F07B01E2
:1022F000EC010C811D81040F151FB801BCDF882380
:1023000059F3288139818C819D81B701820F931FF8
:102310000E942C2C1D830C8381E0DFCFFB010190F8
:102320000020E9F73197AF01461B570BCCCFFB01DB
:102330004481558160817181C6CFCF93DF93EC01D9
:1023400088819981009711F00E94BE2A1982188213
:102350001D821C821B821A82DF91CF910895CF9338
:10236000DF93EC01FB0101900020E9F73197AF0109
:10237000461B570BA8DF811102C0CE01DEDFCE0164
:10238000DF91CF910895CF93DF93EC01FB0144815E
:1023900055816081718197DF811102C0CE01CDDF4F
:1023A000CE01DF91CF910895EF92FF920F931F938B
:1023B000CF93DF93EC017B018A01BA015CDF8111CD
:1023C0000AC0CE01BADFCE01DF91CF911F910F91EC
:1023D000FF90EF9008951D830C83B7018881998148
:1023E0000E942C2CF0CFFB0101900020E9F73197DF
:1023F000AF01461B570BD8CFEF92FF920F931F935D
:10240000CF93DF93CDB7DEB7A1970FB6F894DEBFB9
:102410000FBECDBF7C01CB01BA01F7011182108242
:1024200013821282158214828E010F5F1F4F22E0E9
:1024300044E00E94A723009781F0BC01C701D3DFCD
:10244000A1960FB6F894DEBF0FBECDBFDF91CF913E
:102450001F910F91FF90EF900895C7016EDFF0CFAD
:10246000CF93DF93EC01FB018617970741F0608162
:1024700071816115710539F04481558195DFCE0177
:10248000DF91CF91089559DFFACFFC0111821082BC
:102490001382128215821482FB0101900020E9F759
:1024A0003197AF01461B570B7FCFCF92DF92EF9250
:1024B000FF920F931F93CF93DF93CDB7DEB7C45630
:1024C000D1090FB6F894DEBF0FBECDBF7C018B01E2
:1024D000DB01CD90DC90C6010E942D27882319F1E5
:1024E000F8018285938584369105ECF48285938585
:1024F0008C0D9D1D0E942D27D8011A96ED91FC91FF
:102500001B9721E030E02C0F3D1FE20FF31F80836B
:102510001A962D913C911B972F5F3F4F1B963C9332
:102520002E931A97DBCFD8011A96ED91FC9121E0FA
:1025300030E02C0F3D1FE20FF31F1082B901C701DD
:10254000A4DFC701CC59DF4F0FB6F894DEBF0FBE32
:10255000CDBFDF91CF911F910F91FF90EF90DF9052
:10256000CF900895FC0180819181009711F00C9427
:10257000BE2A08950F931F93CF93DF93EC018C0134
:102580000E5F1F4FC8016CDFB801CE010C9668DFEB
:10259000888999899B878A8719861886288539852D
:1025A0008A859B85281739070CF5888599852889A0
:1025B00039898217930720F4EC85FD85309799F4CB
:1025C00010920E06EEE0F6E0288539858881998123
:1025D0006081820F931F0E94352788859985019617
:1025E00099878887DBCFE80FF91FEECF2A853B85D7
:1025F0008881998160E0820F931FDF91CF911F91B5
:102600000F910C9435279F92AF92BF92CF92DF9299
:10261000EF92FF920F931F93CF93DF935C017B01A7
:102620008B01D0E0C0E0F80191908F016501CC0EE4
:10263000DD1EC6010E942D27981621F0692DC601C6
:102640000E9435272196C430D10569F7C701DF9173
:10265000CF911F910F91FF90EF90DF90CF90BF909F
:10266000AF909F900895CF92DF92EF92FF920F93D9
:102670001F93CF93DF9300D000D0CDB7DEB782E0B9
:102680000E94BE0921E0892B09F420E02093CA05AD
:102690008091CA05882309F4BBC08091400681114E
:1026A000C6C067E572E0CE010196EFDEBE016F5F46
:1026B0007F4F8EE098E05EDFCE01019653DF63E648
:1026C00072E0CE010196E1DEBE016F5F7F4F8CEFBD
:1026D00097E050DFCE01019645DF8091180290917E
:1026E000190262E376E08FDF809116029091170263
:1026F0006EE276E088DF80911402909115026AE222
:1027000076E081DF60912E0670912F068091300671
:1027100090913106C0902A06D0902B06E0902C06AE
:10272000F0902D0620E030E040EA50E40E945C2763
:1027300023E333E948E853E40E945D279B01AC01A1
:1027400064EF7DEF84ED9BE30E94C127A701960112
:102750000E9479269B01AC0160E070E080E89FE375
:102760000E945C2720EE3DE248EA50E40E945E2889
:1027700020E030E54DE754E40E94792669837A83AE
:102780008B839C838091120290911302BE016F5F34
:102790007F4F39DF609122067091230680912406D5
:1027A0009091250620E030E048EC52E40E94C127D9
:1027B00069837A838B839C838091100290911102AC
:1027C000BE016F5F7F4F1FDF81E0809340068093E3
:1027D0004F0860E080E40E94F60660E080E80E9416
:1027E000F60608EF11E061E080E00E94F606015075
:1027F0001109C9F760E084E20E94F60660E08DE00E
:102800000E94E6098BE193E00197F1F71092CA0567
:1028100026960FB6F894DEBF0FBECDBFDF91CF91E5
:102820001F910F91FF90EF90DF90CF9008958091CE
:102830004006882359F3109240060E94D007E2CF49
:102840001F920F920FB60F9211240BB60F922F9377
:102850003F934F935F936F937F938F939F93AF9328
:10286000BF93EF93FF9386EB96E00E949F08FF9142
:10287000EF91BF91AF919F918F917F916F915F91F8
:102880004F913F912F910F900BBE0F900FBE0F9065
:102890001F9018951F920F920FB60F9211240BB62E
:1028A0000F922F938F939F93EF93FF93E091C60620
:1028B000F091C7068081E091CC06F091CD0682FDB3
:1028C0001DC090818091CF068F5F8F732091D006BD
:1028D000821741F0E091CF06F0E0EA54F94F958F6E
:1028E0008093CF06FF91EF919F918F912F910F9041
:1028F0000BBE0F900FBE0F901F9018958081F2CFE6
:102900001F920F920FB60F9211240BB60F922F93B6
:102910003F934F935F936F937F938F939F93AF9367
:10292000BF93EF93FF9383E597E00E949F08FF9189
:10293000EF91BF91AF919F918F917F916F915F9137
:102940004F913F912F910F900BBE0F900FBE0F90A4
:102950001F9018951F920F920FB60F9211240BB66D
:102960000F922F938F939F93EF93FF93E0916307C1
:10297000F09164078081E0916907F0916A0782FD18
:102980001DC0908180916C078F5F8F7320916D07C0
:10299000821741F0E0916C07F0E0ED5AF84F958F07
:1029A00080936C07FF91EF919F918F912F910F90E2
:1029B0000BBE0F900FBE0F901F9018958081F2CF25
:1029C0001F920F920FB60F9211242F933F938F9364
:1029D0009F93AF93BF938091410690914206A0913F
:1029E0004306B091440630910F0623E0230F2D37A4
:1029F00058F50196A11DB11D20930F068093410645
:102A000090934206A0934306B0934406809110062B
:102A100090911106A0911206B09113060196A11D86
:102A2000B11D8093100690931106A0931206B093E7
:102A30001306BF91AF919F918F913F912F910F906E
:102A40000FBE0F901F90189526E8230F0296A11D28
:102A5000B11DD2CF1F920F920FB60F9211240BB659
:102A60000F922F933F934F935F936F937F938F9327
:102A70009F93AF93BF93EF93FF93E0910E02F0917A
:102A80000F021995FF91EF91BF91AF919F918F9197
:102A90007F916F915F914F913F912F910F900BBE5E
:102AA0000F900FBE0F901F9018951F920F920FB6A8
:102AB0000F9211240BB60F922F933F934F935F9376
:102AC0006F937F938F939F93AF93BF93EF93FF93F6
:102AD000E0910C02F0910D021995FF91EF91BF91D9
:102AE000AF919F918F917F916F915F914F913F91A6
:102AF0002F910F900BBE0F900FBE0F901F90189547
:102B00001F920F920FB60F9211240BB60F922F93B4
:102B10003F934F935F936F937F938F939F93AF9365
:102B2000BF93EF93FF93E0910202F0910302199596
:102B3000FF91EF91BF91AF919F918F917F916F9195
:102B40005F914F913F912F910F900BBE0F900FBE51
:102B50000F901F9018951F920F920FB60F9211248D
:102B60000BB60F922F933F934F935F936F937F9387
:102B70008F939F93AF93BF93EF93FF93E0910002E6
:102B8000F09101021995FF91EF91BF91AF919F9143
:102B90008F917F916F915F914F913F912F910F9006
:102BA0000BBE0F900FBE0F901F9018951F920F92A3
:102BB0000FB60F9211240BB60F922F933F934F93A2
:102BC0005F936F937F938F939F93AF93BF93EF9395
:102BD000FF93E0910A02F0910B021995FF91EF919A
:102BE000BF91AF919F918F917F916F915F914F9125
:102BF0003F912F910F900BBE0F900FBE0F901F9023
:102C000018951F920F920FB60F9211240BB60F92C8
:102C10002F933F934F935F936F937F938F939F93E4
:102C2000AF93BF93EF93FF93E0910802F0910902F5
:102C30001995FF91EF91BF91AF919F918F917F91E6
:102C40006F915F914F913F912F910F900BBE0F901D
:102C50000FBE0F901F9018951F920F920FB60F92F4
:102C600011240BB60F922F933F934F935F936F9363
:102C70007F938F939F93AF93BF93EF93FF93E091D5
:102C80000602F09107021995FF91EF91BF91AF9164
:102C90009F918F917F916F915F914F913F912F9174
:102CA0000F900BBE0F900FBE0F901F9018951F92A4
:102CB0000F920FB60F9211240BB60F922F933F93E2
:102CC0004F935F936F937F938F939F93AF93BF9334
:102CD000EF93FF93E0910402F09105021995FF91A3
:102CE000EF91BF91AF919F918F917F916F915F9184
:102CF0004F913F912F910F900BBE0F900FBE0F90F1
:102D00001F9018951F920F920FB60F9211240BB6B9
:102D10000F922F933F934F935F936F937F938F9374
:102D20009F93AF93BF93EF93FF938091B900887FF8
:102D3000803609F44DC008F040C0883209F4A9C0BB
:102D400028F5803109F49DC0C8F4882309F4FBC03C
:102D5000883009F496C0FF91EF91BF91AF919F9198
:102D60008F917F916F915F914F913F912F910F9034
:102D70000BBE0F900FBE0F901F901895883109F46D
:102D800088C0803241F780938B0614C0803409F4E8
:102D90009DC040F48033B9F38833E9F680938B0605
:102DA00085ECB0C0803509F485C0883509F496C03B
:102DB000883489F60E949A0ACECF883909F48CC0EB
:102DC00038F5883729F050F4883611F0803719F635
:102DD00083E080938D0610920D0657C0883809F461
:102DE0007BC0803919F0803809F0B5CF80910D068D
:102DF000803208F071C0E0910D0681E08E0F809363
:102E00000D068091BB00F0E0E351FA4F80833DC096
:102E1000803B39F0E0F4803A09F479C0883A09F04F
:102E20009ACF84E080938D061092EC051092EB050A
:102E3000E0911606F091170619958091EB05811126
:102E40000FC081E08093EB051092CB0509C0803C58
:102E500009F4A6CF883C09F4A3CF883B09F07BCFC7
:102E6000E091EC0581E08E0F8093EC05F0E0E553F6
:102E7000FA4F80818093BB009091EC058091EB0527
:102E800029C0809168068093BB0085EC8093BC00CC
:102E900062CF90918A0680918906981758F5E09143
:102EA0008A0681E08E0F80938A06F0E0E759F94F99
:102EB0008081E9CFE0918A0681E08E0F80938A06B7
:102EC0008091BB00F0E0E759F94F808390918A062A
:102ED000809189069817C8F285E8D8CFE0918A06D4
:102EE00081E08E0F80938A068091BB00F0E0E75965
:102EF000F94F808380918C0681115CCF81E08093B3
:102F0000670684EA8093BC0010928D0624CF85EC7E
:102F10008093BC0010928D0680910D06803230F4B3
:102F2000E0910D06F0E0E351FA4F108260910D063A
:102F300070E0E0911406F09115068DEE95E019957C
:102F400010920D0608CF10928B0634CF1F920F926D
:102F50000FB60F9211240BB60F922F933F934F93FE
:102F60005F936F937F938F939F93AF93BF93EF93F1
:102F7000FF9380917B00877F80937B0080E4809328
:102F80007C0080917A00806480937A0080917A003E
:102F900086FDFCCF90917800809179008927982751
:102FA00089279093C9058093C805809140068111B7
:102FB0000CC08091C8059091C90561E0853F9140A2
:102FC0000CF060E08DE00E94E609FF91EF91BF9167
:102FD000AF919F918F917F916F915F914F913F91B1
:102FE0002F910F900BBE0F900FBE0F901F90189552
:102FF0000F931F93CF93DF93E6EBF6E013821282D9
:1030000088EE93E0A0E0B0E084839583A683B78345
:1030100028E232E0318320834DEC50E0558744872D
:103020004CEC50E05787468748EC50E0518B408B82
:1030300049EC50E0538B428B4AEC50E0558B448B6B
:103040004EEC50E0578B468B118E128E138E148EE1
:10305000E3E5F7E01382128284839583A683B78326
:103060003183208325EC30E03587248724EC30E061
:103070003787268720EC30E0318B208B21EC30E045
:10308000338B228B22EC30E0358B248B26EC30E026
:10309000378B268B118E128E138E148EE0EFF7E095
:1030A0001382128284839583A683B7838AE392E096
:1030B000918380836CE672E084E698E0E6D96EE75F
:1030C00072E08EE598E0E1D964E972E088E598E085
:1030D000DCD966E572E082E598E0D7D9E6E4FDE068
:1030E000E491F0E0EE0FFF1FEC5DF24F85919491BB
:1030F000C7E3D8E099838883E6EEFCE0E491EA87B1
:10310000E7E4FDE0E491F0E0EE0FFF1FEC5DF24F2D
:10311000859194919B838A83E7EEFCE0E491EB87B1
:10312000E8E4FDE0E491F0E0EE0FFF1FEC5DF24F0C
:10313000859194919D838C83E8EEFCE0E491EC878B
:10314000E9E4FDE0E491F0E0EE0FFF1FEC5DF24FEB
:10315000859194919F838E83E9EEFCE0E491ED8765
:10316000EAE4FDE0E491F0E0EE0FFF1FEC5DF24FCA
:103170008591949199878887EAEEFCE0E491EE8747
:1031800061E088E00E94130A61E089E00E94130A6E
:1031900061E08AE00E94130A61E08BE00E94130A5A
:1031A00061E08CE00E94130A88E08F878BE0888BB7
:1031B00000911C0210911D0266E572E080E198E02A
:1031C00064D9CEE0D8E01B861A8666E572E08AE113
:1031D00098E05BD91983088300911A0210911B02B1
:1031E00066E572E08EEF97E050D9CCEFD7E01B8612
:1031F0001A8666E572E088E098E047D9198308836B
:10320000DF91CF911F910F910895CF93DF93CDB7A9
:10321000DEB72C970FB6F894DEBF0FBECDBF789403
:1032200084B5826084BD84B5816084BD85B58260CB
:1032300085BD85B5816085BD80916E00816080937C
:103240006E001092810080918100826080938100E5
:1032500080918100816080938100809180008160F5
:10326000809380008091B10084608093B100809150
:10327000B00081608093B000809191008260809363
:1032800091008091910081608093910080919000E5
:103290008160809390008091A10082608093A10062
:1032A0008091A10081608093A1008091A000816045
:1032B0008093A00080912101826080932101809100
:1032C00021018160809321018091200181608093A0
:1032D000200180917A00846080937A0080917A0046
:1032E000826080937A0080917A00816080937A0076
:1032F00080917A00806880937A001092C100E091FA
:103300006307F091640702E00083E0915F07F091AA
:1033100060071082E0916107F09162078FEC808373
:1033200010926B07E0916707F091680716E0108331
:10333000E0916507F0916607808180618083E0916C
:103340006507F0916607808188608083E09165075A
:10335000F0916607808180688083E0916507F09135
:10336000660780818F7D808360E082E00E94130A7F
:1033700061E08DE00E94130AE091C606F091C70655
:103380000083E091C206F091C3061082E091C4066A
:10339000F091C50680E180831092CE06E091CA06C6
:1033A000F091CB061083E091C806F091C9068081A8
:1033B00080618083E091C806F091C90680818860B1
:1033C0008083E091C806F091C9068081806880837F
:1033D000E091C806F091C90680818F7D808367EAFD
:1033E00072E086EB96E00E94071064EA72E083E5E3
:1033F00097E00E94071083EC92E00E941A1081115E
:1034000009C067EA72E086EB96E00E9407106AEA5C
:1034100072E0EDCF60EC72E083E597E00E94071068
:1034200066EC72E086EB96E00E94071083EC92E077
:103430000E941A1081110BC066EC72E086EB96E0D8
:103440000E94071062ED72E083E597E0EDCF6AEE2F
:1034500072E083E597E00E94071064EF72E083E575
:1034600097E00E9407106EE073E0CE0101960DD840
:1034700064E678E0CE0101960E94C3116AEF74E021
:103480000E94AF116EE578E00E94C3116CEF74E00A
:103490000E94AF110E94F20FCE01019663D883EC17
:1034A00092E00E941A108823D1F369E173E083E56A
:1034B00097E00E94071080914308E0913B08F0914B
:1034C0003C089081892B808380914208E0913908E3
:1034D000F0913A089081892B808380914108E09196
:1034E0003708F09138089081892B808380914508B6
:1034F000E0913F08F09140089081892B8083809172
:103500004408E0913D08F0913E0890818095892320
:1035100080836AE070E080E090E00E94690A809118
:103520004408E0913D08F0913E089081892B80830A
:1035300060E081E20E94F60660E086EC0E94F606FA
:1035400060E086E00E94F60660E083E10E94F606F5
:1035500060E080E20E94F60660E080E40E94F606E9
:1035600060E080E80E94F60608EF11E061E080E08C
:103570000E94F60601501109C9F760E08CE00E9434
:10358000F606109249081092480810924F0806E477
:1035900010E010935108009350080E94D00760E09B
:1035A00081E20E94F60660E086EC0E94F60660E08A
:1035B00080E20E94F606109351080093500883E0C1
:1035C00080932008109246061092450610928F06AE
:1035D0001092B10610928D0681E080938C061092B5
:1035E000670661E084E10E94E60961E085E10E94EE
:1035F000E6098091B9008E7F8093B9008091B9006F
:103600008D7F8093B90088E48093B80085E480932F
:10361000BC0081E298E0909317068093160682E240
:1036200098E0909315068093140680ED0E94D80BC5
:10363000853539F06FE273E083E597E00E9407106B
:10364000FFCF8AEA0E94AE0B909322088093210854
:103650008CEA0E94AE0B90932408809323088EEA94
:103660000E94AE0B909326088093250880EB0E9461
:10367000AE0B909332088093310882EB0E94AE0B20
:10368000909334088093330884EB0E94AE0B9093A0
:1036900036088093350886EB0E94AE0B909328087D
:1036A0008093270888EB0E94AE0B90932A088093A2
:1036B00029088AEB0E94AE0B90932C0880932B086C
:1036C0008CEB0E94AE0B90932E0880932D088EEB0E
:1036D0000E94AE0B9093300880932F0883E393E110
:1036E000909301028093000280916A008C7F816038
:1036F00080936A00EC9AF8941092850010928400EE
:10370000109280001092810088E09DE390938900E0
:1037100080938800809181008860809381008091EF
:10372000810085608093810080916F00826080932A
:103730006F007894809140068111DDC10E945D0781
:1037400080EA9AE00E943E0750E040E06EE077E2B7
:1037500083E693E00E94CD0D48E050E06EE077E212
:1037600088E693E00E94CD0D6EE078E0CE010196F0
:103770000E94551268E170E0CE0101960E94C310CC
:10378000CE0101960E94B2126CEF77E0CE01019655
:103790000E94551260E270E0CE0101960E94C310B3
:1037A000CE0101960E94B21268E873E180E090E0D9
:1037B0000E94690A64E773E083E597E00E941910AC
:1037C00080911802909119020E94B30DFC01608152
:1037D00071818281938142E00E94150F64E572E05D
:1037E00083E597E00E94C10E0E945D0780EA9AE09F
:1037F0000E943E0750E040E06EE077E284E993E00B
:103800000E94CD0D4BE150E066E070E08DE993E061
:103810000E94CD0D8AE798E00E943E078091180231
:10382000909119020E94B30DFC0160817181828127
:10383000938142E150E00E940F1168EB7BE080E051
:1038400090E00E94690A6FE973E083E597E00E94C7
:10385000191080911602909117020E94B30DFC017D
:10386000608171818281938142E00E94150F60EC3A
:1038700073E083E597E00E9407100E945D0780EAED
:103880009AE00E943E0750E040E06EE077E289EC6B
:1038900093E00E94CD0D8AE798E00E943E07809158
:1038A0001602909117020E94B30DFC016081718194
:1038B0008281938142E150E00E940F1180EA9AE0F8
:1038C0000E943E0746E150E068E470E085ED93E039
:1038D0000E94CD0D80EA9AE00E943E074BE150E045
:1038E0006BE470E08CE792E00E94CD0D68EB7BE02A
:1038F00080E090E00E94690A67ED73E083E597E05D
:103900000E94191080911402909115020E94B30D2B
:10391000FC01608171818281938142E00E94150FD8
:1039200065EF73E083E597E00E9407100E945D0752
:1039300080EA9AE00E943E0750E040E06EE077E2C5
:103940008DEF93E00E94CD0D8AE798E00E943E073C
:1039500080911402909115020E94B30DFC016081C8
:1039600071818281938142E150E00E940F1168EBE6
:103970007BE080E090E00E94690A66E074E083E505
:1039800097E00E94191080911202909113020E94F8
:10399000B30DFC01608171818281938142E00E94BC
:1039A000150F67E274E083E597E00E9407100E941C
:1039B0005D0780EA9AE00E943E0750E040E070E038
:1039C00060E080E394E00E94CD0D48E050E06EE0BE
:1039D00077E28EE394E00E94CD0D8AE798E00E94A2
:1039E0003E0780911202909113020E94B30DFC01D8
:1039F000608171818281938144E150E00E940F11C6
:103A000068EB7BE080E090E00E94690A6AE474E081
:103A100083E597E00E9419108091100290911102A5
:103A20000E94B30DFC01608171818281938142E02B
:103A30000E94150F67E274E083E597E00E9407108B
:103A40000E945D0780EA9AE00E943E0750E040E055
:103A500070E060E080E394E00E94CD0D8AE798E09A
:103A60000E943E0780911002909111020E94B30DB6
:103A7000FC01608171818281938142E150E00E946A
:103A80000F1168EB7BE080E090E00E94690A0E94E1
:103A90005D0780EA9AE00E943E0748E050E06EE051
:103AA00077E288E694E00E94CD0D67E572E0CE01F2
:103AB00001960E94451268E170E0CE0101960E94D5
:103AC000C310CE0101960E94B21263E672E0CE01ED
:103AD00001960E94451260E270E0CE0101960E94BC
:103AE000C310CE0101960E94B21268E873E180E033
:103AF00090E00E94690A32E0232E312CAA24A3947C
:103B0000B12C50E2852E56E0952E80914006811111
:103B1000AEC519821A821B821C821D8261E087E079
:103B20000E94130A60E087E00E94E60962E170E00B
:103B300080E090E00E94690A61E087E00E94E60967
:103B40008BE990E00197F1F760E087E00E94130AAB
:103B500001E117E287E00E94BE09892B09F01BC32F
:103B600001501109B9F76EEF7FEF072E000C880B9B
:103B7000990B0E941A26609336067093370680933D
:103B80003806909339060E945D0780EA9AE00E9409
:103B90003E0750E040E06EE077E284E993E00E9467
:103BA000CD0D4BE150E066E070E08DE993E00E94BE
:103BB000CD0D8AE798E00E943E0760913C06709127
:103BC0003D06072E000C880B990B0E941A26609365
:103BD000320670933306809334069093350665E77A
:103BE00074E083E597E00E941910609132067091AD
:103BF0003306809134069091350642E00E94150FFD
:103C000064E572E083E597E00E94C10E60913206A0
:103C100070913306809134069091350642E150E070
:103C20000E940F1160ED77E080E090E00E94690A49
:103C30000E945D0780EA9AE00E943E0750E040E063
:103C40006EE077E289EC93E00E94CD0D8AE798E080
:103C50000E943E0760913E0670913F06072E000CC1
:103C6000880B990BE7D760932E0670932F068093ED
:103C700030069093310666E874E083E597E00E9491
:103C8000191060912E0670912F0680913006909148
:103C9000310642E00E94150F60EC73E083E597E087
:103CA0000E94071060912E0670912F0680913006B9
:103CB0009091310642E150E00E940F1180EA9AE0B3
:103CC0000E943E0746E150E068E470E085ED93E035
:103CD0000E94CD0D80EA9AE00E943E074BE150E041
:103CE0006BE470E08CE792E00E94CD0D60ED77E030
:103CF00080E090E00E94690A0E945D0780EA9AE0F5
:103D00000E943E0750E040E06EE077E28DEF93E0E6
:103D10000E94CD0D8AE798E00E943E070E94F90BB1
:103D200089D720E836EE45EC57E40E94C12721E010
:103D30003EED42E45EE30E945E289B01AC0160E040
:103D400070E080E89FE30E945C2720E03AE24DE2C9
:103D500057E4CFD760932A0670932B0680932C06E6
:103D600090932D0668E974E083E597E00E941910AE
:103D700060912A0670912B0680912C0690912D0659
:103D800042E00E94150F65EF73E083E597E00E9423
:103D9000071060912A0670912B0680912C06909155
:103DA0002D0642E150E00E940F1160ED77E080E0C7
:103DB00090E00E94690A60912E0670912F06809112
:103DC000300690913106C0902A06D0902B06E090E4
:103DD0002C06F0902D0620E030E040EA50E40E94EE
:103DE0005C2723E333E948E853E40E945D279B0105
:103DF000AC0164EF7DEF84ED9BE30E94C127A70136
:103E0000960177D79B01AC0160E070E080E89FE30A
:103E10000E945C2720EE3DE248EA50E40E945E28C2
:103E200020E030E54DE754E464D7609326067093B4
:103E300027068093280690932906609118067091B2
:103E400019066115710509F015C208E116E06091C7
:103E500022067091230680912406909125060E94E7
:103E60002928F801619371938F018E169F0679F7C7
:103E7000809118069091190620911C0630911D061C
:103E8000281739070CF024C290931D0680931C0656
:103E900080911C0690911D0620911E0630911F06F0
:103EA000821B930B90931B0680931A0666E074E0C6
:103EB00083E597E00E94191060912606709127060D
:103EC000809128069091290642E00E94150F67E232
:103ED00074E083E597E00E9407100E945D0780EA86
:103EE0009AE00E943E0750E040E070E060E080E32E
:103EF00094E00E94CD0D48E050E06EE077E28EE362
:103F000094E00E94CD0D8AE798E00E943E07609100
:103F1000260670912706809128069091290642E195
:103F200050E00E940F1168EB7BE080E090E00E947F
:103F3000690A0E945D0780EA9AE00E943E0750E00D
:103F400040E070E060E087EA94E00E94CD0D8AE7EF
:103F500098E00E943E070E94F90B6CD660932206FF
:103F600070932306809324069093250664EB74E0F7
:103F700083E597E00E941910609122067091230654
:103F8000809124069091250620E030E048EC52E430
:103F9000F8D742E00E94150F67E274E083E597E0EE
:103FA0000E940710609122067091230680912406DA
:103FB0009091250620E030E048EC52E4E2D742E15F
:103FC00050E00E940F1160ED77E080E090E00E94E9
:103FD000690A6091220670912306809124069091CF
:103FE000250620E030E048EC52E4CBD720E030E476
:103FF0004DE754E419D618160CF077C160912606E7
:1040000070912706809128069091290620E030E4DF
:104010004DE754E409D687FD68C16091220670918E
:104020002306809124069091250620E030E048EC9C
:1040300052E4A7D720E030E44DE754E40E945A2828
:1040400018168CF06091260670912706809128063C
:104050009091290620E030E44DE754E40E945A286C
:1040600018160CF0DAC16091180670911906072E27
:10407000000C880B990BDED56B017C016091260644
:1040800070912706809128069091290620E030E063
:1040900040E751E412D79B01AC01C701B601C4D57A
:1040A00087FF07C080911A0690911B0603970CF0BA
:1040B000E8C26091260670912706809128069091AB
:1040C000290620E030E040EF51E4F6D69B01AC0138
:1040D000C701B601EFD71816DCF46091260670917F
:1040E0002706809128069091290620E030E040E4E0
:1040F00050E4E2D69B01AC01C701B60195D587FF1C
:1041000007C08091200690912106029709F4B9C258
:1041100060912E0670912F068091300690913106A5
:1041200020E030E0A90180D587FF77C16091320699
:1041300070913306809134069091350620E030E08E
:104140004CE852E4B7D718160CF067C160912A0604
:1041500070912B0680912C0690912D0620E030E086
:1041600041E654E4A7D718160CF057C10E945D072A
:1041700080EA9AE00E943E0750E040E06EE077E27D
:1041800084EE94E00E94CD0D8AED92E00E94EB0750
:1041900064EE74E038C101E117E287E00E94BE09D5
:1041A000019721F401501109C1F7DDCC28E2E22E7C
:1041B000F12C17E000E091E1C92E97E2D92E87E0BB
:1041C0000E94BE09892B29F4F1E0CF1AD108B9F772
:1041D000CACC0E94440A2B013C0181E1C82E87E22F
:1041E000D82E87E00E94BE09019729F481E0C81A01
:1041F000D108B9F7B8CC0E94440A64197509860938
:104200009709693271058105910578F0E1E0F0E0E8
:10421000EC0FFD1FE00FF11D80819501012E01C003
:10422000220F0A94EAF7822B8083111121C00F5FBD
:1042300017E0E1E0EE1AF10809F0BDCF8981282FDF
:1042400030E030933D0620933C069B81292F30E0DF
:1042500030933F0620933E06890F61E070E09D8118
:10426000891302C070E060E07195619571097DCCA1
:104270001150DFCF072E000C880B990BDBD46B019C
:104280007C01209122063091230640912406509112
:10429000250610D718162CF4B0922106A0922006FD
:1042A000E7CD2091220630912306409124065091BB
:1042B0002506C701B601B8D487FF05C03092210694
:1042C00020922006D5CD1092210610922006D0CD46
:1042D00020911E0630911F06821793070CF0D8CD4F
:1042E00090931F0680931E06D3CD6091180670919F
:1042F0001906072E000C880B990B9CD46B017C01CE
:1043000060912606709127068091280690912906D3
:1043100020E030E040EE50E4D0D59B01AC01C70175
:10432000B601C8D618166CF480911A0690911B0637
:1043300002973CF4809120069091210602970CF49C
:104340004EC06091260670912706809128069091B4
:10435000290620E030E040E751E4AFD59B01AC01F5
:10436000C701B60161D487FD85C1609126067091B1
:104370002706809128069091290620E030E040EF42
:1043800051E49AD59B01AC01C701B60193D618162A
:104390000CF48CC160912E0670912F06809130062E
:1043A0009091310620E030E040EA51E483D61816BF
:1043B0000CF098C10E945D0780EA9AE00E943E07D7
:1043C00050E040E06EE077E286ED94E00E94CD0D93
:1043D0008AE195E00E94EB0766ED74E014C00E944C
:1043E0005D0780EA9AE00E943E0750E040E06EE000
:1043F00077E28AEC94E00E94CD0D8AE597E00E9476
:10440000EB076AEC74E082E598E00E94F31160ED3E
:1044100077E080E090E00E94690A6AEE74E0CE01E5
:1044200001960E94451268E578E0CE0101960E944F
:10443000C3116EEF74E00E94AF110E94F20FCE0123
:1044400001960E94B2128FE095E00E941A10882314
:1044500031F063E075E083E597E00E94071065E1C5
:1044600075E0CE0107960E94451264E575E0CE0125
:1044700007960E948E1163E672E0CE0101960E94BB
:104480004512BE016F5F7F4FCE0107960E949711C4
:10449000CE0101960E94B2126DE575E0CE0107963D
:1044A0000E948E114091320650913306609134067D
:1044B00070913506CE0101960E94FC11BE016F5F1E
:1044C0007F4FCE0107960E949711CE0101960E9460
:1044D000B21266E675E0CE0107960E948E114091F9
:1044E0002E0650912F066091300670913106CE0154
:1044F00001960E94FC11BE016F5F7F4FCE010796AF
:104500000E949711CE0101960E94B2126FE675E0EB
:10451000CE0107960E948E1140912A0650912B06DB
:1045200060912C0670912D06CE0101960E94FC111F
:10453000BE016F5F7F4FCE0107960E949711CE019B
:1045400001960E94B21268E775E0CE0107960E94BC
:104550008E11409126065091270660912806709191
:104560002906CE0101960E94FC11BE016F5F7F4FAC
:10457000CE0107960E949711CE0101960E94B212B9
:1045800061E875E0CE0107960E948E1140912206E7
:10459000509123066091240670912506CE01019664
:1045A0000E94FC11BE016F5F7F4FCE0107960E94F3
:1045B0009711CE0101960E94B2126AE875E0CE0111
:1045C00007960E948E111A8219821C821B821E82FB
:1045D0001D8262E578E0CE0101960E943012BE0194
:1045E0006F5F7F4FCE0107960E949711CE01019613
:1045F0000E94B21263E975E086EB96E00E94191002
:104600004B855C854E5F5F4F70E060E02AE086EB93
:1046100096E00E94CA0E64E572E086EB96E00E9486
:10462000C10E60ED77E080E090E00E94690A8FE9BA
:1046300095E00E941A10882381F0CE0107960E940F
:10464000F20F61EA75E083E597E00E94071068EEDB
:1046500073E080E090E00E94690A6BEB75E086EB06
:1046600096E00E940710CE0107960E94B2120E94A7
:104670002C094BCA80911A0690911B0603970CF4E3
:1046800074CE0E945D0780EA9AE00E943E0750E0E7
:1046900040E06EE077E280ED94E00E94CD0D8AE389
:1046A00096E00E94EB0760ED74E0ADCE60912606C7
:1046B00070912706809128069091290620E030E02D
:1046C00040E450E4F9D39B01AC01C701B601ACD280
:1046D00087FF60CE8091200690912106029709F015
:1046E00059CECFCF0E945D0780EA9AE00E943E0734
:1046F00050E040E06EE077E28DED94E00E94CD0D59
:104700008AEF93E00E94EB076DED74E07CCE88E0C9
:1047100098E00E94B2128EEF97E00E94B2128AE1F6
:1047200098E00E94B21280E198E00E94B21282E505
:1047300098E00E94B21288E598E00E94B2128EE5DD
:1047400098E00E94B21284E698E00C94B212EF92C4
:104750000F931F93CF93DF93E80134E047FD34E1DB
:10476000042E000C550B57FF03C05195419551097C
:10477000E32E022F242FAE0107D0CE01DF91CF917F
:104780001F910F91EF9008958F929F92AF92BF92D9
:10479000CF92DF92EF92FF920F931F93CF93DF930D
:1047A00000D000D000D0CDB7DEB76A01F22EB02E17
:1047B000102FFBE3AF2EA01608F41BE31F5F012FA1
:1047C00027E0AE014F5F5F4F57D1BC018981982F21
:1047D0009970913009F44EC09BE2E1FC04C09E2D1B
:1047E0009170E0FC49C05E2D5071E82FE87083FFA6
:1047F00055C084E0911101C083E0EF2DE81B8F15B7
:1048000008F0E0E0D6018E2F20E25523C9F199236C
:1048100029F0D6019C93C60101966C0196012D5F8B
:104820003F4FE2FE33C08EE4D6018C9391E41196A3
:104830009C93119712968C93D9018E2F90E281113F
:104840002AC0E20FF32FF11D10828EEF9FEF299601
:104850000FB6F894DEBF0FBECDBFDF91CF911F9191
:104860000F91FF90EF90DF90CF90BF90AF909F900F
:104870008F9008959DE2B7CF90E2B5CF2D938150F0
:104880008111FCCFCE0ED11CE0E0C1CF8EE6D60167
:104890008C9391E6CCCF9D938150D1CF482F44701B
:1048A00082FF3DC084E0911101C083E08F1510F4B8
:1048B000EF2DE81BD6018E2F20E2552309F1992315
:1048C00029F0D6019C93C60101966C0196012D5FDB
:1048D0003F4FE2FE1BC089E4D6018C938EE4119613
:1048E0008C93119786E412968C93D9018E2F90E2C7
:1048F000882309F4A6CF9D938150FACF2D93815040
:104900008111FCCFCE0ED11CE0E0D9CF89E6D601D3
:104910008C938EE611968C93119786E6E4CF9B01DB
:1049200077FF02C030E020E0A1E0B0E0911102C0CA
:10493000B0E0A0E0F9013196AE0FBF1F8B2C912C97
:10494000BB2009F461C05401EFEFAE1ABE0AAA0DF4
:10495000BB1DFA161B0619F014F04F2D4A1B5111FE
:1049600088C0E3FC59C07601A42FB0E2A1114FC06A
:10497000C40ED11C992309F45BC040E0D601119606
:10498000F60190836D01552309F448C0012F060FED
:104990009A81582F507184FF03C0913309F401505C
:1049A00010160CF047C0093008F008E0EEE2FE2EC9
:1049B0005B01A01AB10885019194819491082F3F61
:1049C000320729F4D601FC92F60131966F01621785
:1049D000730794F1021713077CF5DB01A21BB30BDD
:1049E000AA24A394B12CAC0EBD1EAA0DBB1D11961A
:1049F0008C9121503109D601119628153905F4F012
:104A0000F60180836D01DBCFB12CA12CA0CFF70183
:104A1000B1937F01A150AACF9111B0CFD601942FAD
:104A200050E302C05D9391509111FCCFC40ED11C94
:104A300040E0ACCF01E0BACF80E3DBCF6217730771
:104A400031F4963388F4953311F4552369F0F60167
:104A50008083FD01842F90E2811108C0A40FB11D55
:104A60001C9290E080E0F3CE81E3F1CF91938150EE
:104A7000F3CF911183CF8ACF283008F027E0332776
:104A8000DA01990F311D87FD91600096610571056E
:104A900039F432602E5F3D9330E32A95E1F70895B3
:104AA0009F3F30F080387105610509F03C5F3C5F45
:104AB0003D93913008F08068911DDF93CF931F9351
:104AC0000F93FF92EF92192F987F9695E92F969565
:104AD0009695E90FFF27E054FE4F99273327EE24E0
:104AE000FF24A701E70105900894079428F4360FE6
:104AF000E71EF81E491F511D660F771F881F991F5B
:104B00000694A1F70590079428F4E70EF81E491FB4
:104B1000561FC11D770F881F991F661F0694A1F7A6
:104B20000590079428F4F80E491F561FC71FD11D82
:104B3000880F991F661F771F0694A1F705900794A9
:104B400020F4490F561FC71FD81F990F661F771FE4
:104B5000881F0694A9F784911095177041F0D69597
:104B6000C79557954795F794E7941A95C1F7E6E6E8
:104B7000F1E06894159015913591659195910590A6
:104B80007FE27395E118F10A430B560BC90BD0096C
:104B9000C0F7E10CF11E431F561FC91FD01D7EF444
:104BA000703311F48A95E6CFE894015030F0080F85
:104BB0000AF40027021708F4202F2395022F7A33D6
:104BC00028F079E37D932A95E9F710C07D932A9523
:104BD00089F6069497956795379517951794E11878
:104BE000F10A430B560BC90BD00998F023957E911F
:104BF00073957A3308F070E37C932013B8F77E91B5
:104C000070617D9330F0839571E37D9370E32A9515
:104C1000E1F71124EF90FF900F911F91CF91DF9159
:104C2000992787FD9095089540D008F481E0089574
:104C3000E89409C097FB3EF4909580957095619536
:104C40007F4F8F4F9F4F9923A9F0F92F96E9BB27EC
:104C50009395F695879577956795B795F111F8CF68
:104C6000FAF4BB0F11F460FF1BC06F5F7F4F8F4FD3
:104C70009F4F16C0882311F096E911C0772321F0C9
:104C80009EE8872F762F05C0662371F096E8862F61
:104C900070E060E02AF09A95660F771F881FDAF7B8
:104CA000880F9695879597F90895990F0008550FE5
:104CB000AA0BE0E8FEEF16161706E807F907C0F0A2
:104CC00012161306E407F50798F0621B730B840BAA
:104CD000950B39F40A2661F0232B242B252B21F484
:104CE00008950A2609F4A140A6958FEF811D811D24
:104CF00008950BD078C069D028F06ED018F09523B5
:104D000009F05AC05FC01124A2C07ED0A0F3959FC5
:104D1000D1F3950F50E0551F629FF001729FBB27A2
:104D2000F00DB11D639FAA27F00DB11DAA1F649F4E
:104D30006627B00DA11D661F829F2227B00DA11D01
:104D4000621F739FB00DA11D621F839FA00D611D87
:104D5000221F749F3327A00D611D231F849F600DA8
:104D6000211D822F762F6A2F11249F5750408AF0E1
:104D7000E1F088234AF0EE0FFF1FBB1F661F771F6D
:104D8000881F91505040A9F79E3F510570F014C004
:104D90005EC05F3FECF3983EDCF3869577956795B0
:104DA000B795F795E7959F5FC1F7FE2B880F911D8B
:104DB0009695879597F9089597F99F6780E870E031
:104DC00060E008959FEF80EC089500240A94161681
:104DD000170618060906089500240A9412161306E9
:104DE000140605060895092E0394000C11F4882377
:104DF00052F0BB0F40F4BF2B11F460FF04C06F5F93
:104E00007F4F8F4F9F4F089557FD9058440F551F68
:104E100059F05F3F71F04795880F97FB991F61F03C
:104E20009F3F79F087950895121613061406551FB3
:104E3000F2CF4695F1DF08C0161617061806991F1F
:104E4000F1CF86957105610508940895E894BB2714
:104E500066277727CB0197F90895F999FECF92BD80
:104E600081BDF89A992780B50895262FF999FECF2C
:104E70001FBA92BD81BD20BD0FB6F894FA9AF99A77
:104E80000FBE0196089509D0A59F900DB49F900D77
:104E9000A49F800D911D11240895A29FB001B39F7E
:104EA000C001A39F700D811D1124911DB29F700D33
:104EB000811D1124911D08955058BB27AA270ED09B
:104EC00092CF83DF30F088DF20F031F49F3F11F480
:104ED0001EF478CF0EF4E095E7FB6ECFE92F94DF58
:104EE00080F3BA17620773078407950718F071F407
:104EF0009EF5ACCF0EF4E0950B2EBA2FA02D0B0132
:104F0000B90190010C01CA01A0011124FF27591B0E
:104F100099F0593F50F4503E68F11A16F040A22F14
:104F2000232F342F4427585FF3CF46953795279585
:104F3000A795F0405395C9F77EF41F16BA0B620B84
:104F4000730B840BBAF09150A1F0FF0FBB1F661FCB
:104F5000771F881FC2F70EC0BA0F621F731F841F0E
:104F600048F4879577956795B795F7959E3F08F034
:104F7000B3CF9395880F08F09927EE0F97958795F3
:104F800008950CD030CF28DF40F01FDF30F021F43F
:104F90005F3F19F011CF51115ACF14CF35DF98F37D
:104FA0009923C9F35523B1F3951B550BBB27AA27AA
:104FB00062177307840738F09F5F5F4F220F331F1C
:104FC000441FAA1FA9F333D00E2E3AF0E0E830D0E8
:104FD00091505040E695001CCAF729D0FE2F27D0EB
:104FE000660F771F881FBB1F261737074807AB07B9
:104FF000B0E809F0BB0B802DBF01FF2793585F4F2E
:105000002AF09E3F510568F0D7CE21CF5F3FECF3E9
:10501000983EDCF3869577956795B795F7959F5FF2
:10502000C9F7880F911D9695879597F90895E1E046
:10503000660F771F881FBB1F621773078407BA07A5
:1050400020F0621B730B840BBA0BEE1F88F7E09500
:10505000089504D06894B111FACE0895DDDE88F089
:105060009F5790F0B92F9927B751A0F0D1F0660F54
:10507000771F881F991F1AF0BA95C9F712C0B1306F
:1050800081F0E4DEB1E00895E1CE672F782F882724
:10509000B85F39F0B93FCCF3869577956795B395AE
:1050A000D9F73EF490958095709561957F4F8F4F1D
:1050B0009F4F0895FADD08F48FEF0895FA01EE0F7F
:1050C000FF1F30962105310599F16115710561F4D5
:1050D0008038BFE39B0749F168949038810561F0FF
:1050E0008038BFEF9B0741F0992342F5FF3FE10570
:1050F0003105210511F1E8940894E795D901AA2317
:1051000029F4AB2FBE2FF85FD0F310C0FF5F70F40F
:10511000A695E0F7F73950F019F0FF3A38F49F7789
:105120009F930CD00F9007FC905808953EF04ACE04
:1051300060E070E080E89FE308954FE79F775F931A
:105140004F933F932F93A2D02F913F914F915F9117
:10515000D0DD09C0AADD880B990B089519F40EF073
:105160002BCE74CE2FCE58DEC8F39638C0F707F892
:105170000F92E8942BE33AEA48EB5FE7C8DD0F9221
:105180000F920F924DB75EB70F92C0D0E4EEF0E0F1
:1051900016D04F915F91EF91FF91E595EE1FFF1FA4
:1051A00049F0FE57E0684427EE0F441FFA95E1F7F7
:1051B0004195550B32D00F9007FE26C00895DF931E
:1051C000CF931F930F93FF92EF92DF927B018C019D
:1051D000689405C0DA2EEF0198DDFE01E894A591F0
:1051E0002591359145915591AEF3EF0177DEFE01A2
:1051F0009701A801DA9479F7DF90EF90FF900F9173
:105200001F91CF91DF9108959B01AC0160E070E0A8
:1052100080E89FE3B6CED0CDACC0FEDDE8F39923A5
:10522000D9F3940F511DBBF39150504094F059F0B5
:10523000882332F0660F771F881F91505040C1F7C6
:105240009E3F510544F7880F911D9695879597F9D4
:1052500008955F3FACF0983E9CF0BB27869577950C
:105260006795B79508F4B1609395C1F7BB0F58F7F0
:1052700011F460FFE8CF6F5F7F4F8F4F9F4FE3CFF9
:10528000E6CD0EF076C09ECD689496CDC5DDC8F310
:105290009923D1F3C6F3DF93CF931F930F93FF921C
:1052A000C92FDD2788232AF02197660F771F881FD3
:1052B000DAF720E030E040E85FEB9FE3883920F048
:1052C000803E30F021968F77F8DDECE0F1E003C00E
:1052D000F4DDE9E3F1E073DF8B01BE01EC01FB2EAD
:1052E0006F5771097595771F880B990BA3DC28E11F
:1052F00032E741E35FE309DDAF2D9801AE01FF9096
:105300000F911F91CF91DF91E9DD6DCDFA01DC01A5
:10531000AA0FBB1F9B01AC01BF5728F422273327DC
:10532000442750781FC0B75188F4AB2F002446950E
:1053300037952795011CA395D2F3002069F0220F21
:10534000331F441FB395DAF30DD0B6CD613071052C
:10535000A0E88A07B94630F49B01AC01662777279D
:1053600088279078309621F02083318342835383BD
:1053700008959F3F31F0915020F487957795679578
:10538000B795880F911D9695879597F90895DB013C
:105390008F939F9378DDBF91AF91A29F800D911D58
:1053A000A39F900DB29F900D11240895A1E21A2E93
:1053B000AA1BBB1BFD010DC0AA1FBB1FEE1FFF1FB9
:1053C000A217B307E407F50720F0A21BB30BE40B09
:1053D000F50B661F771F881F991F1A9469F7609550
:1053E0007095809590959B01AC01BD01CF0108950A
:1053F000052E97FB16F400940FD057FD05D0D6DF8D
:1054000007FC02D046F408C0509540953095219590
:105410003F4F4F4F5F4F08959095809570956195E0
:105420007F4F8F4F9F4F0895EE0FFF1F881F8BBF39
:105430000790F691E02D1994B7FF25CD24DD821B4E
:10544000930B08950F931F93CF93DF9382309105B1
:1054500010F482E090E0E0916C08F0916D0830E08B
:1054600020E0B0E0A0E0309799F42115310509F46F
:105470004AC0281B390B24303105D8F58A819B811D
:105480006115710589F1FB0193838283FE0111C0CF
:10549000408151810281138148175907E0F0481774
:1054A000590799F4109761F012960C93129713967E
:1054B0001C933296CF01DF91CF911F910F910895E8
:1054C00000936C0810936D08F4CF2115310551F04D
:1054D0004217530738F0A901DB019A01BD01DF0132
:1054E000F801C1CFEF01F9CF90936D0880936C085C
:1054F000CDCFFE01E20FF31F81939193225031092A
:1055000039832883D7CF20916A0830916B08232BE9
:1055100041F4209120023091210230936B082093B6
:105520006A0820911E0230911F022115310541F4B5
:105530002DB73EB74091220250912302241B350B18
:10554000E0916A08F0916B08E217F307A0F42E1BB4
:105550003F0B2817390778F0AC014E5F5F4F2417D7
:10556000350748F04E0F5F1F50936B0840936A0851
:10557000819391939FCFF0E0E0E09CCFCF93DF93B6
:105580000097E9F0FC01329713821282A0916C0817
:10559000B0916D08ED0130E020E01097A1F420817A
:1055A0003181820F931F20916A0830916B08281770
:1055B000390709F061C0F0936B08E0936A08DF9146
:1055C000CF910895EA01CE17DF07E8F54A815B81A4
:1055D0009E0141155105B1F7E901FB83EA83499129
:1055E0005991C40FD51FEC17FD0761F4808191819B
:1055F0000296840F951FE9019983888382819381A4
:105600009B838A83F0E0E0E012968D919C91139742
:105610000097B9F52D913C911197CD010296820F1B
:10562000931F20916A0830916B082817390739F6C3
:10563000309751F510926D0810926C08B0936B087A
:10564000A0936A08BCCFD383C28340815181840F69
:10565000951FC817D90761F44E5F5F4F8881998104
:10566000480F591F518340838A819B819383828392
:105670002115310509F0B0CFF0936D08E0936C0867
:105680009ECFFD01DC01C0CF13821282D7CF4F9293
:105690005F926F927F928F929F92AF92BF92CF92C2
:1056A000DF92EF92FF920F931F93CF93DF938C01C2
:1056B000009791F4CB01DF91CF911F910F91FF9053
:1056C000EF90DF90CF90BF90AF909F908F907F90A2
:1056D0006F905F904F90B6CEFC01E60FF71F9C01D4
:1056E00022503109E217F30708F4AAC0D901CD917D
:1056F000DC911197C617D70718F1C530D10570F0A6
:10570000CE0104978617970748F0C61BD70B229740
:10571000C193D1936D937C93CF0130DFC801DF91AA
:10572000CF911F910F91FF90EF90DF90CF90BF909E
:10573000AF909F908F907F906F905F904F90089563
:105740005B01AC1ABD0A4C018C0E9D1EA0916C0829
:10575000B0916D08512C412CF12CE12C109731F5B2
:1057600080916A0890916B088815990509F05CC0D2
:105770004616570608F058C080911E0290911F02ED
:10578000009741F48DB79EB74091220250912302B9
:10579000841B950BE817F90708F052C0F0936B08CB
:1057A000E0936A08F90171836083B8CF8D919C9171
:1057B000119712966C90129713967C901397A815D8
:1057C000B90559F56C0142E0C40ED11CCA14DB04C2
:1057D00020F1AC014A195B09DA011296159780F0A5
:1057E0006282738251834083D9016D937C93E1146B
:1057F000F10471F0D7011396FC93EE9312978ECFBC
:1058000022968C0F9D1FF90191838083F301EFCFC6
:10581000F0936D08E0936C0881CF4816590608F4A0
:105820002C017D01D3019ACFCB010CDE7C010097C6
:1058300039F0AE01B80107D0C801A0DE87016ECFF4
:1058400010E000E06BCFFB01DC0102C001900D9283
:1058500041505040D8F70895FB01DC0101900D92B2
:105860000020E1F70895FB01DC014150504048F071
:1058700001900D920020C9F701C01D924150504087
:10588000E0F7089516E0C3ECD6E000E005C0802FF5
:10589000FE01CADD2196011DC43CD10780E0080746
:0658A000B1F7F894FFCF00
:1058A600990A990A990A990A990A990A990A990ADA
:1058B6009001C2015E012C01FA00C80096000000AA
:1058C6006E08800000000000C108230850080D097A
:1058D60081085F08730800000000210BF50A650BBC
:1058E600CB0AEE0ADB0ACC0A6E616E00696E6600B0
:1058F6006F7666000D0A004D61792032372032300E
:1059060032300032323A35313A3132005475726BE8
:1059160054656C656B6F6D5F544237344300574175
:105926004C4B494E47444541443132333435363782
:10593600383131003138342E3130362E3135332E70
:1059460031343900202D20415400202D204553505C
:1059560038323636204E6F7420466F756E642E00D0
:10596600202D204F4B0041542B43574D4F44453D6E
:105976003100202D2053657474696E672074686544
:10598600204D6F6465202E2E2E00202D20436C693D
:10599600656E7400202D20436F6E6E656374696FAB
:1059A6006E20496E7465726E65742E2E2E004154FB
:1059B6002B43574A41503D2200202D20436F6E6EE7
:1059C600656374696F6E20737563636573730043F3
:1059D6006F756C64206E6F742066696E642061203A
:1059E60076616C696420424D503038352073656E9F
:1059F600736F722C20636865636B20776972696EBA
:105A06006721004C617374004D6561737572656D35
:105A1600656E7400202D204D656173757265642076
:105A260048756D69646974792056616C7565203AAC
:105A36002025200048756D69646974790025002069
:105A46002D204D656173757265642054656D7065B2
:105A56007261747572652056616C7565203A200016
:105A66002043656C636975730054656D706572617A
:105A760074757265006F00202D204D656173757217
:105A8600656420416C7469747564652056616C7533
:105A960065203A2000206D657465727300416C7450
:105AA600697475646500202D205072657373757274
:105AB600652043616C63756C6174696F6E20566115
:105AC6006C7565203A2000206D696C696261720010
:105AD6005072657373757265206D62617200436101
